:020000024000BC
:10800000E0E80120895D06002D0F0900755D06007E
:10801000755D0600755D0600755D0600755D060000
:108020000000000000000000000000000D5F0600DE
:10803000755D0600000000009D5E0600755D06008F
:10804000D5600600D5600600D5600600D560060044
:10805000D5600600D5600600D5600600D560060034
:10806000D5600600D5600600D5600600D560060024
:10807000D5600600D5600600D5600600D560060014
:10825000D5600600F55E0900D5600600D560060011
:10826000D5600600D5600600DF5E0900D560060017
:10827000D5600600D5600600D5600600D560060012
:10828000D5600600D5600600D5600600D560060002
:10829000D5600600D5600600D5600600D5600600F2
:1082A000D5600600D5600600D5600600D5600600E2
:1082B000D5600600D5600600D5600600D5600600D2
:1082C000D5600600D5600600D5600600D5600600C2
:1082D000D5600600D5600600D5600600D5600600B2
:1082E000D5600600D5600600D5600600D5600600A2
:1082F000D5600600D5600600D5600600D560060092
:10830000D5600600D5600600D5600600D560060081
:10831000D5600600D5600600D5600600D560060071
:10832000D5600600D5600600D5600600D560060061
:10833000D5600600D5600600D5600600D560060051
:10834000D5600600D5600600D5600600D560060041
:10835000D5600600D5600600D5600600D560060031
:10836000D5600600D5600600D5600600D560060021
:10837000D5600600D5600600D5600600D560060011
:10838000D5600600D5600600D5600600D560060001
:10839000D5600600D5600600D5600600D5600600F1
:1083A000D5600600D5600600D5600600D5600600E1
:1083B000D5600600D5600600D5600600D5600600D1
:1083C000D5600600D5600600D5600600D5600600C1
:1083D000D5600600C95E0900D5600600D5600600BC
:1083E000D5600600D5600600D5600600D5600600A1
:1083F000D5600600D5600600D5600600D560060091
:10840000D5600600D5600600D5600600D560060080
:10841000D5600600D5600600D5600600D560060070
:10842000D5600600D5600600D5600600D560060060
:10843000D5600600D5600600D5600600D560060050
:10844000D5600600D5600600D5600600D560060040
:10845000D5600600D5600600D5600600D560060030
:10846000D5600600D5600600D5600600D560060020
:0C847000D5600600D5600600D56006004F
:10848000054B00221B78826001330260034A426080
:10849000C371FF2303727047F04B012028010800CD
:1084A000064A074B02604FF43672DB78828008225E
:1084B000C371002382710372704700BF0FDD050096
:1084C000F04B0120064A074B02604FF4B472DB7A8E
:1084D00082800822C371FF2382710372704700BF3C
:1084E00047D80500F04B01202DE9F341C41D0028B9
:1084F000064624F007040CBF0020204600F016FDBD
:10850000071E04DA6FF00B0002B0BDE8F081374DB2
:10851000E988A88803316B7A03302A7A89B280B25D
:1085200011F0E7FC0028EDDB3C44A978EB78002E45
:1085300004F10304194424F0030400FB01F10CBF0F
:108540000020204600F082FE20440EB90028D9DB2E
:10855000EA7A0446B2B1EB7B697C13441944FF29E3
:10856000D0D80330002EAA89C9B220F003040CBF72
:108570000020204600F0DCFE0028C3DB04440EB9D6
:10858000002CBFDB012000F0C7FCB0B1A97BA1B17A
:1085900095F82B3033B340234FF481720734002E0B
:1085A00024F007040CBF0020204603F05BFE0028E7
:1085B000A8DB04440EB9002CA4DBAB7AFBB1EB7A48
:1085C000B3B10734002EA97A24F007040CBF0020B1
:1085D000204607F0CBFC002894DB04447EB9002C35
:1085E0000DDA8FE725232822D8E700BFF04B0120C2
:1085F000012000F091FC10B1AB7B002BE1D1734B5B
:108600001B6893B1A97D81B10334002EEA7D24F06B
:1086100003040CBF0020204698470028FFF672AFE5
:10862000044416B9002CFFF66DAF694B1B688BB183
:10863000297C79B10334002E24F003040CBF002000
:10864000204698470028FFF65DAF044416B9002C79
:10865000FFF658AF5F4B1F68B7B1697CA1B1033417
:10866000002E2B7D24F0030408BF0020009318BFC8
:108670002046EB7CAA7CB8470028FFF643AF0444B1
:1086800016B9002CFFF63EAF072000F045FC98B16C
:10869000A97D89B10334002E2A7E24F003040CBF87
:1086A0000020204600F032FF0028FFF62BAF0444E4
:1086B00016B9002CFFF626AFB6FA86F795F8230018
:1086C0007F09A0B103346B7FA97E24F0070419440D
:1086D0003B4644F00404C9B2224600F057FF00288C
:1086E000FFF610AF044416B9002CFFF60BAF95F857
:1086F000241000294CD004F10708002EEA8C28F041
:1087000007080CBF0020404611F007FC041EFFF6CE
:10871000F9AE4444002E3ED1002CFFF6F3AEA97F03
:10872000002945D095F82230002B41D02A8C0734FF
:10873000002E02F1240224F007080CBF002040465E
:1087400092B211F0EAFB0028FFF6DCAE404416B905
:108750000028FFF6D7AE03302B7FA97E20F007005C
:1087600019443B4640F0040495F82200C9B2224661
:1087700000F0FEFE0028FFF6C5AE044486B9002CCA
:10878000FFF6C0AEEB6AF3B1C6B1EC620020BBE607
:10879000002EC4D08846E98C40460DF063FBBEE74E
:1087A0002A8C4046A97F083292B20DF061FBE9E7BE
:1087B000002EE7D0002211461046F6E728343FF598
:1087C000A1AE2046A0E6002EE0D1FAE76C300120F1
:1087D00070300120743001201FB572B6194B1C6B2C
:1087E000ECB9BFF34F8F1849184BCA6802F4E06226
:1087F0001343CB60BFF34F8F00BFFDE7B2FBF6F230
:108800002B465D1C002AF9D1DBB203F110056D4443
:1088100005F80C2C0A2233B901A8A047E1E702466B
:1088200000230A26EDE7013BDBB203F110050DEB57
:108830000506B0FBF2F502FB1500303006F80C0C13
:108840002846E8E7F04B012000ED00E00400FA05BF
:1088500013B5124C68462389ADF80030E388ADF8B3
:108860000430A388ADF8023005F07CFB18B1FC2180
:108870009C20FFF7B1FF207D05F0D0FB08B1FF2160
:10888000F6E7E07C05F0C4FB10B14FF48071EFE730
:1088900094F829000BF07CFE02B010BDF04B0120D3
:1088A00070B5054600285BD010F0BAF918B94FF042
:1088B000FF34204670BD0FF00DFEB0F5FA7FF6D8FC
:1088C000294C012629482563002500F0A1FA2846F5
:1088D00084F83450257084F82B50E56284F82A50CF
:1088E0000DF062FA1A22294604F10F0015F0B6FDC8
:1088F0001B2308210322A3802846E3800223A172C0
:108900001F216372E375F72322722384FB23A27372
:108910004922E3840A23A1812946E27484F829309C
:10892000A670E670E672A674267604F063FB2A460B
:108930003146304604F012FB044620B140F2AD311E
:108940009C20FFF749FF0246014604F035FBEFF398
:10895000108572B600F040FE002DAAD162B6A8E7DD
:108960006FF01504A5E700BFF04B0120518804000B
:1089700038B51446002840F0EE80784D95F8343034
:10898000032B00F0E58019B312B96FF0150038BD64
:108990000139172900F2DF80DFE811F01800290003
:1089A0002C0042006C0075009400480078007B00A9
:1089B0008E004E005400620067009A009D00AC00DB
:1089C000AF00B200A300B500B900D2001378AB70BD
:1089D0000020FFF789FD0028B7BF012302236FF0B5
:1089E0000B0085F83430A8BF85F83430CFE7137812
:1089F000EB70EDE71379002BC7D05379002BC4D06F
:108A00001288FB2AC1D863881B3B9BB2E02BBCD8E1
:108A10001A2ABAD92368A2886B60514B9A80D7E78B
:108A20001378EA7B9342B0D3EB72D1E71378EA7AFA
:108A30009342AAD8EB73CBE71378EA7A9342A4D88F
:108A40006B74C5E71378002B9FD05378013BDBB2E2
:108A5000F82B9AD8138892786B82424B9A70B7E7BA
:108A6000107868750BF08EFDB2E71378002B8CD070
:108A70002B76ADE7012000F04FFA237808B1012BE7
:108A800083D9AB73A4E71388AB81A1E71378AB75E7
:108A90009EE7072000F040FA18B92378012B7FF6F3
:108AA00074AF072000F038FA18B12378002B3FF498
:108AB0006CAF2378EB758BE71378082B3FF665AF27
:108AC0002B7485E71388FF2B3FF65FAFAB727FE710
:108AD00013786B767CE713780E2B3FF656AFAB76A8
:108AE00076E72368204AC5F81E30636853602389FF
:108AF00013816DE71378EB766AE713786B7767E796
:108B000013782B7764E7137885F8283060E704F052
:108B10001FFA98B1007900F001026178207804F022
:108B20001DFA00287FF433AF6378012B7FF650AF36
:108B30000DF040F900287FF44BAF26E70246ECE742
:108B400013785A1E092A3FF620AF85F829303FE7EF
:108B50004FF0FF301BE76FF02C0018E7F04B0120BF
:108B6000F44B0120024C01200E4C0120F8B50D46BB
:108B7000064630B329B311F0070422D1124F97F8FB
:108B80003430012B02D16FF00B00F8BD032B02D162
:108B90004FF0FF30F9E700F073F80028F8D02846CE
:108BA000FFF7A2FC0028EEDB15F081F93046F96AE8
:108BB00005F0DAFAFFF74CFE0323204687F834303D
:108BC000E3E76FF01500E0E7F04B012010B5074C2C
:108BD00094F83430032B03D105F0E2FA06F088FA5A
:108BE00011F0E7FA002084F8340010BDF04B0120AA
:108BF00050B1074B03F1140253F8041B934240F8A1
:108C0000041BF9D1002070476FF01500704700BFBA
:108C1000E37E0A0008B505F051FA03490320BDE8D8
:108C2000084000F071B900BFC584040008B505F024
:108C30005FFA03490220BDE8084000F065B900BFB3
:108C4000A184040008B505F075FA0449012000F07C
:108C50005BF9034B012283F82B2008BD81840400BB
:108C6000F04B012002680020014B1A60704700BFE2
:108C7000284C0120014B1B68184700BF284C0120DD
:108C8000024B1868003818BF01207047284C01209B
:108C9000F7B504462D4E071D2C48376006F040FA04
:108CA0000228054606D12949204610F0A1FA284697
:108CB00003B0F0BD042842D13378092B0AD0262B0B
:108CC0001ED03146204610F00DFBB0F5817F2DD32C
:108CD000722112E005213E2010F05CFA0028F0D14C
:108CE000F37801A93279684643EA0223ADF80030EF
:108CF00010F0D7FE0028CFD053210820FFF76CFDDD
:108D00001A213E2010F046FA0028DAD1736869462D
:108D100001A8C3F30F23ADF8043011238DF80630FA
:108D200010F0E1FE0028B7D06521E6E70028B3D0B7
:108D3000A178207810F02EFA0028B8D1ACE70828E6
:108D4000B5D10249204610F08BFAB0E72C4C012037
:108D5000074B4FF0FF3141F6FF72C3E9001205499E
:108D60000022C1E900221F21C3E90212704700BF9F
:108D700000300120304D01203F280CD801380B4B2A
:108D8000C0F3421200F01F0053F8223023FA00F023
:108D900000F001007047FF2806D04038044BC0F3B4
:108DA000421200F01F00EFE7012070470030012061
:108DB000304D0120074B0146006849681A4603C23E
:108DC00040F48C221A6041F0107242F4FF625A6043
:108DD000704700BF003001200246024B0068516816
:108DE00003C3704708300120431EF428DBB201D1D1
:108DF00004F0F8B85909054A03F01F0302EB810299
:108E00009068D84000F00100704700BF003001209A
:108E1000014B1860704700BF384D012010B5FFF7B7
:108E200097FF12F09CF9034B04461B6803B1984767
:108E3000204610BD384D01200A8870B595B2C67C19
:108E4000C2F30E020488023602F118033444C35AF6
:108E5000A4B233442344013BB3FBF4F303FB0422E9
:108E6000438892B29342044B8BBF2B40AB431343D6
:108E70009BB20B8070BD00BF0080FFFF4A1E062A18
:108E800008B50346084604D84FF4D1711520FFF702
:108E9000A3FC094A914202D940F2A311F6E711B9A5
:108EA00003B1196008BD2BB11B680022C3E9012181
:108EB0001A1D1A600430F5E7FAFFFF7F10B5114B59
:108EC00000EB41041A786389B3FBF2F303FB02233E
:108ED000013A1A44B2F5706F0279807828BF0023F6
:108EE0001A440B18B2FBF0F100FB11215B1AB3FB23
:108EF000F0F100FB113313446FEA43436FEA53432D
:108F0000638110BD3C4D0120024B03EB800359608F
:108F1000704700BF3C4D0120034B03EB80035868B2
:108F2000003818BF012070473C4D01202DE9F04F5B
:108F300010F0070A85B0054604D040F261111720F1
:108F4000FFF74AFC534F04464FF0010B07F154065C
:108F5000B146B04657F8043B8DF80BA03BB101A8D1
:108F600098479DF80A30082B01D9E821E7E79DF8DA
:108F70000B1041BB05B131604F4506F10406E9D144
:108F8000002D6ED00022DFF810911427964689F844
:108F9000002058F827A0013FBAF1000F54D09AF8EA
:108FA00004609AF802C0FF2E5FD039460023481CA7
:108FB00037D19C44BCF1FF0F3ED90AB189F800E0DB
:108FC00040F22711BBE79DF80AC04B1D60465A00CE
:108FD00004EB4303022838BF0220441E40422344CE
:108FE000BDF808406444CCF1000C0340013C04EAA5
:108FF0000C04B4F5803F01D3F821A0E775B19A1AAB
:1090000032609170148082F803B09DF80C001071EA
:1090100001984FEA104C1081A2F806C004FB0134FD
:10902000AAE758F8210028B190F804B0B34504BF6E
:1090300080781B180139BAE7DBB2E6458AF80430BC
:109040003CBF5FFA8CFE01227B1CA2D10AB189F8D9
:1090500000E0142640F6FF6A58F82670B7B9013EC2
:10906000FAD2601B05B0BDE8F08F0023E5E707EBFF
:10907000410309F101093846A3F80AA0FFF71EFFD2
:109080005FFA89F1BB788B42F1D8E8E74FF000092D
:10909000F6E700BF404D01203C4D0120034B03EBA0
:1090A0008003986D00B18078704700BF3C4D01206F
:1090B00038B54FF6FF7302460380184B03EB81036C
:1090C000986DA8B184780379B3FBF4F104FB1133F4
:1090D000DBB2194600EB4105B5F90A50002D0EDB55
:1090E0000131B1FBF4F504FB1511C9B28B42F1D18A
:1090F000002038BD6381BDE8384010F0D6BE00EBDB
:1091000041046389C3F30E031380C278002AF1D1AE
:109110004FF4D5711720FFF75FFB00BF3C4D0120D6
:109120001C4B03EB810370B59C6D054644B30304EF
:1091300004D54FF4DC711720FFF74EFB01462046A3
:1091400010F096FEFF28014604D02046BDE870408E
:1091500010F0ABBEA078B5FBF0F300FB1353DBB20D
:1091600019460A1D04EB4206B6F90260002E09DB1F
:109170000131B1FBF0F200FB1211C9B28B42F0D108
:10918000002070BD8B4201D00023E37004EB42024B
:109190005580DAE73C4D0120094B03EB8103014682
:1091A00010B59C6D204610F063FEFF28014604D0E8
:1091B0002046BDE8104010F078BE002010BD00BF72
:1091C0003C4D0120F8B5104B074603EB81030146E7
:1091D0009C6D204610F04CFEFF28054611D0E28819
:1091E000238953EA024606D00146204610F05DFE70
:1091F00001463846B04720462946FFF75FFE00206B
:10920000F8BD0520FCE700BF3C4D012038B50E4BF2
:109210000446827903EB8203986D08B9052038BDB6
:109220008278E1799142F9D24B1CE37100EB410362
:109230005D89B3F90A30002BF3DBA58010F035FE11
:1092400020600020EBE700BF3C4D012070B50446D4
:1092500010F003000E4603D04E211820FFF7BCFA91
:10926000FFF70CFE054624B1034831460460FFF7C2
:1092700005FE284670BD00BFE84D01202DE9F14FE5
:10928000DFF870B01E4607460D46DBF8003090460A
:109290009DF828A09DF82C901BB960211820FFF79D
:1092A0009BFA52460921404610F062FC4A4684B2BD
:1092B0000921304610F05CFC81B2DBF8000021444B
:1092C00010F0AAFD386018B9286001B0BDE8F08F31
:1092D00004445346414609222C60386810F00BFCC8
:1092E0004B4609223146286801B0BDE8F04F10F026
:1092F00002BC00BFE84D012070B50E46044610F0D8
:109300004AFC0546304610F046FC044B2A1821461C
:109310001868BDE8704010F0A4BD00BFE84D012002
:10932000024B186808B110F06BBD7047E84D012082
:109330001F2AF8B5044613460ED89200033222F0D5
:109340000303B3F5803F2DD2184DACB1A00710D068
:109350005F210920FFF740FAFF2B4FEA420204D9B0
:10936000FF339A42A8BF1A46E8E77C2AB8BF7C229E
:10937000E4E729706C602B8122F003022823012787
:10938000120403FB01F06B680025120CEEB2B1422F
:1093900000D8F8BD14B126181F705E601044013566
:1093A0002833F3E74FF0FF30F3E700BFEC4D012027
:1093B000154A002170B553681578C8B2854203D8A4
:1093C000AB210920FFF708FA1C461846013114F8B2
:1093D000286B0EB92346F0E7002199700124128909
:1093E000996103F126055C709208D96103F11E04AE
:1093F000596824F8022FA54243F8041F1144F8D1FC
:1094000000234361037070BDEC4D01200A4B1B89A2
:10941000B3F5FF7F4FEA930006D25A089B1A9BB21E
:10942000984238BF18467047B3F5EE6F01D8FF2257
:10943000F4E740F27263F3E7EC4D01204B782DE93D
:10944000F04106460C4602F0040702F0FB05E3B1CA
:10945000A5BBFF23A3707B0804EB57073A7D032AC3
:1094600002D1022D18BF0133E2180121117503F159
:109470000C01002204EB830324F811205B68A27026
:1094800030463360B280BDE8F081002DE1D1012388
:1094900001F11E028D6120464B7004F1260C1A4B1F
:1094A000CD611B8949689B0822F8023F944540F82A
:1094B000041F1944F8D100236361CAE7D1F804807E
:1094C00014220021A018617014F0C8FF0E4B1B89F4
:1094D000B3F5FF7F0FD25A089B1A9BB208EB03012A
:1094E000C4F804802384A1606284C4F80C80A3843F
:1094F0002161E284ADE7B3F5EE6F4FF0FF02EBD9E7
:1095000040F27263EAE700BFEC4D01202DE9F84319
:1095100005460C46F7200521914610F029FB061E52
:1095200021DB1DB906FB04F0BDE8F88315F0030745
:1095300003D098211920FFF74FF9DFF83080C8F8E1
:109540001050A8F81460BBB29C42EBD9B8F8145084
:109550004B46D8F810000522F72107FB050001371C
:1095600010F0C9FAEFE74FF0FF30DDE7004E0120C1
:1095700007B5CDE900230B4603490246081D10F04C
:10958000F2FD03B05DF804FB184E012013B5064C44
:10959000CDE900230B46024604F1080104F10C005A
:1095A00010F0E1FD02B010BD184E012008B54B1EB1
:1095B000032B03D923219020FFF70EF90028054A39
:1095C0000CBF05230C2303EB8103053323F00103B8
:1095D000137008BD284E01201F4B4FF0FF300021B3
:1095E0001A6801235360C2F80803C2F80015C2F8D4
:1095F00004351A4A12685360C2F80803C2F800150D
:1096000040F6FE71164A1748C2F80815B0F9002056
:10961000002A0CDB510902F01F02934001F12002E5
:10962000114941F82230BFF34F8FBFF36F8FB0F96C
:109630000030002B09DB5A09012103F01F03994078
:1096400002F16003084A42F82310054B40F6FE720F
:10965000C3F80825704700BFD8590120D45901200C
:1096600000200840E859012000E100E00A460648D1
:109670003D2302F8033BC368C1F80330036953601C
:1096800043699360704700BF304E0120024B5A8CF3
:1096900002435A845B6A1847304E0120014B002177
:1096A0005B6A1847304E012010B5154C0BF072FF65
:1096B0000BF0D6F9208DFFF7F1FF237E63B1224630
:1096C000104904F1190052F80C3BE36063685360E1
:1096D000A368936013F086F90B4B228D93E8030087
:1096E00006F074FC236B188806F0F6FBA36B94F865
:1096F000341094F835009847002384F83C3010BDAE
:10970000304E01206D9604005C4E0120034B93F80F
:109710003C300BB1FFF7C8BF704700BF304E01208F
:1097200070B5254C0646256B636C95F89420236430
:1097300094F8483095F8751003EB82002EB9FF2895
:1097400003D195F874308B4201D00BF09FFD95F852
:10975000943053B3E06C0BF0FFFF94F82C30E16CC5
:10976000003B206C18BF012384F87030D5E93C23FE
:10977000C4E918230BF0F8F85EB995F87530033B8F
:10978000012B2B8F8CBF00202820184480B20CF0B6
:1097900043F8A88E0BF0ECFC95F8741000200CF048
:1097A0009BF8022384F83C3070BD206C0BF0D4FF92
:1097B0000BF056F9E0E700BF304E01200138C0B28F
:1097C000032808B504D940F29D410620FFF704F8AC
:1097D000014B185C08BD00BF1F7D090008B5094B8F
:1097E00093F83C20022A04D040F24F212720FEF7B4
:1097F000F3FFDA7A42F00102DA72BDE80840FFF7BF
:1098000053BF00BF304E012003280B4B10B5044658
:1098100005D19A6FD278022A01D1002010BDD86FED
:1098200010F038FA0028F9D1032CF6D004F0E0FE4D
:1098300080F00100C0B2F1E7304E012038B52F4C66
:10984000054694F82C307BB101280DD1638C1807A4
:109850000AD5A26F137803F00303032B04D1D37846
:10986000022B01D1012038BD0129FBD8D4F880306A
:10987000284698470028F5D094F834000028F1D104
:1098800094F82C301BB9012D03D01846EBE7002DBE
:10989000E9D194F8845025B194F88500FFF7B4FF1E
:1098A0000546606C12F0F2FFD4F88830ABB9B4F81A
:1098B0008C30B3FA83F35B0994F82C10628C71B18D
:1098C00091070CD5A26F137803F00303032BC9D1C2
:1098D000D078023818BF0120C5E70123ECE7002A41
:1098E000C0D1012814BF002303F0010343EA05009F
:1098F00080F0010000F00100B5E700BF304E01200C
:109900002DE9F043334C85B00746884694F83C3047
:10991000012BDEB204D040F204512720FEF75CFF99
:10992000256B02A8A16F10F046FC95F884309DF8D5
:10993000089053B10021042085F88410FFF7A6FE9B
:1099400094F82C300BB185F88660B9F1030F29D05B
:10995000BDF80C30002B18BF022695F8943085F81E
:109960008A60CBB194F82C30216B003B94F84860AE
:1099700091F8750018BF012384F87030D5E93C23B5
:10998000C4E91823FFF71AFF002203461249009288
:10999000022032460AF016FF6FB105B0BDE8F04371
:1099A000FFF782BE95F88A301BB9A16F0220FFF73E
:1099B0006DFE0326D1E7B8F1000FEED039463846E8
:1099C000FFF73CFF0028E8D105B0BDE8F043FFF702
:1099D000A7BE00BF304E0120804E012010B5094CBB
:1099E000D4F8883023B940F2F6412720FEF7F4FE80
:1099F000B4F88C201846216C03320FF0B3FA2064BF
:109A000010BD00BF304E01202DE9F341714C002301
:109A1000256B8DF8053095F8741058B995F8942099
:109A200094F8483003EB8203FF2B03D195F875308F
:109A30008B4202D0FF200BF029FC95F88A30032BD3
:109A400000F2BB80DFE803F0023598AB94F88E306B
:109A50006148ADF80630A5F8643004F09FFD58B1B8
:109A60000121A36F85F88510DB781B2B1DD105F133
:109A700010000BF057FC18E00DF105020DF1060186
:109A8000E06F10F0AFF8A06798B195F8CF3083B9C8
:109A90009DF805302BB9038001218370A06F12F06F
:109AA000E5FEA36FBDF806205A70012384F88F30BD
:109AB00001E04A4BA367A76F95F88B203B78D20053
:109AC00003F0030603F0F30302F0080230461343E9
:109AD00095F88C20920002F0040213433B70FFF7CC
:109AE00093FE3B7823F0100343EA00133B70A06F12
:109AF00090F8018012F0CEFE95F89330071E18BF43
:109B00000127002B5CD0B8F1000F59D0E06C0BF0AE
:109B100023FE94F82C30E16CB3FA83F3A06F5B0959
:109B200084F87030D5E93A23C4E918233A460CF09A
:109B30006BF818B9A16FE06C0AF0AAFE304610F07D
:109B400067FBE88E0BF014FB95F8751001200125DA
:109B50000BF0C2FEA06F84F8935012F097FEA36F33
:109B600084F884001B7884F83C5003F0030384F8E5
:109B7000853002B0BDE8F081B5F864300DF1050222
:109B80000DF10601E06FADF8063010F02BF8A0677C
:109B900000288AD140F2F1212720FEF71DFE0E4851
:109BA00004F0FCFC10B940F2FB21F5E7A36FDB7871
:109BB0001B2B7FF47AAF012159E740F20931EBE723
:109BC000A06F0BF0C9FD0AF04BFF3946A06F14F0EF
:109BD000A8F9B3E7304E0120A84E0120C04E012065
:109BE000064B10B593F83C2002F0FF0422B91C7616
:109BF00006F0E4F9204610BD0C24FBE7304E0120AE
:109C00000A4B0B4A70B506460D461A60FFF7E8FF8F
:109C100018B1F4212720FEF7DFFD064C012104F1E5
:109C2000900012F023FE6664E56470BD7830012078
:109C3000C0A30400304E0120024B012283F894207F
:109C4000704700BF304E0120F0B585B09A4C02AE8F
:109C50000A9F86E8030094F83C1001F0FF0511B953
:109C60000AB103B127B940F283112720FEF7B4FDF2
:109C700096E8030004F12C0C84F8945084F83450D6
:109C800084F8955084F8355084F8935084F88F50B8
:109C9000658425856262C4F88030A7638CE8030080
:109CA000256B0BF061FB0AF0DBFE95F97C000BF0F5
:109CB000C1FBAE6A286A0BF0C3FB30460BF030FDE7
:109CC00095F8A4000BF0C6FB94F82C60002E40F031
:109CD000A78013F0A2FA95F87420784B4FF47A71AC
:109CE00053F8223003F5FA73B3FBF1F35433191828
:109CF00030460BF03BFC724B724E05F584771868CA
:109D00000BF014FD6B69E367AB69C4F8983005F19B
:109D1000F8031868083353F8041C3246BB4203C2E8
:109D20001646F6D15968684AD5F8080103C2226B75
:109D300092F88E3092F87460A3F12601012903D9BC
:109D400092F88F10262976D194F82C30002B6FD101
:109D500092F80A12304610F04BFA064605F13C071D
:109D60003146384612F0C2FE314612F0DAF9B5F843
:109D7000483095F87510834228BF0346384684F86A
:109D80008E3012F068FE95F8751095F894700429DD
:109D9000B5F8506008BF032112F0C3F90FB90430C1
:109DA00080B2864228BF0646F6B284F89C6005F071
:109DB0007FFA28B105F082FAB04238BF3046C6B209
:109DC00094F82C7084F84860002F5AD195F893309D
:109DD0008BB1012395F8740084F87030D5E93A23EB
:109DE000C4E91823FFF7EAFCFB22034635490420A7
:109DF00000970AF0E7FC0120FFF706FE002323602E
:109E00006360A360B5F8883063802B88238095F861
:109E1000A4302371AB6F0BB101221A6005B0F0BD05
:109E200013F0FBF995F8752000F17601012060E749
:109E300092F8A2128EE7213B012B11D8242911D0D0
:109E400094F82C30CBB192F82E315A0713D413F07A
:109E500001017FF47FAFC3F340035B00D9B279E720
:109E600024290AD194F82C303BB192F82E3192F883
:109E70006D201340E9E704216CE7032E08BF042698
:109E80006CE795F8943093B1012395F8750084F848
:109E90007030D5E93C23C4E91823FFF78FFC00227A
:109EA000034608490092022032460AF08BFC01204A
:109EB000FFF736FCA2E700BF304E012060800900AA
:109EC00078300120804E0120984E012008B5114BBA
:109ED00093F83C201AB9BDE80840FFF7E5BB93F8BA
:109EE0002C2042B993F83C30012B12D040F22D21A6
:109EF0002720FEF771FC93F83C20022A02D040F2A2
:109F00003121F5E71B6BD3F8D801BDE808400BF011
:109F100057BC08BD304E0120014B1876704700BF7A
:109F2000304E0120014B93F893007047304E0120D2
:109F3000044B93F88F0018B993F82900C0F3001070
:109F4000704700BF304E0120024B93F82900C0F348
:109F5000C0007047304E0120014B93F895007047C8
:109F6000304E01202DE9F043314D85B004460F46B7
:109F700002A8296C2E6B10F01EF914F00109BDF82F
:109F80000C8004F0020428D0002385F89D3094B1A1
:109F9000FFF724FD0DF1020201A9D5F898000FF09A
:109FA00025FF01980FF008FF012238604146D5F8DF
:109FB00098000FF0B0FEB9F1000F0BD0D6E93C329B
:109FC000013342F10002C6E93C3296F88C3001338D
:109FD00086F88C3005B0BDE8F08395F89D30032BF2
:109FE00020D801A252F823F08F9F0400F99F0400AB
:109FF00013A0040013A00400002CEBD0FFF7EEFC2C
:10A0000000224146D5F8980005B0BDE8F0430FF0B6
:10A0100082BE002CDED0D5F8980005B0BDE8F04334
:10A020000FF0E0BE40F2A2412720FEF7D5FB00BFB3
:10A03000304E01202DE9F04F0023B74C87B0804609
:10A040008A46276BCDE9023394F83C30022B04D0CA
:10A0500040F28B512720FEF7BFFB216C04A810F0C3
:10A06000AAF8BDF8146097F89430B8F1000F00F02A
:10A0700059819DF810909DF811B0002B3AD00AF04C
:10A08000FDFCB8BB6EB197F88C3003F001035B4563
:10A090000BD1012384F83530FFF706FB07B0BDE88C
:10A0A000F08FA4F88C60002006E0A4F88C603146A4
:10A0B000D4F898000FF00FFE238D9DF8122043F482
:10A0C0000073C4F88800238597F88B3003F00103F0
:10A0D0009A4200F0C880256B95F88A30002B3FD05B
:10A0E000022B13D102A9E06F0FF09EFD38B940F2A8
:10A0F0003B41AFE7A4F88C60002ED4D0D7E7D5E978
:10A100003A32013342F10002C5E93A32002194F8B3
:10A110002C3085F88A103BB195F8863023B1102099
:10A1200085F88610FFF7B2FA95F885309BB10021CB
:10A1300085F8851004F044FA002110B940F252412C
:10A1400088E70820FFF7A2FAD5E93A32013342F155
:10A150000002C5E93A3295F88B30013385F88B302F
:10A16000238D002543F40063238597F88C3003F09A
:10A1700001035B4579D0002648464FF0000910F0F6
:10A1800047F897F89330B3B194F82C3097F87400EF
:10A19000B3FA83F35B0984F87030D7E93A23C4E952
:10A1A0001823FFF70BFB002203465C4900920420B2
:10A1B000FB220AF007FBBAF1000F00F0DE800BF083
:10A1C000C1FB002E40F0F1804FF00109238D5A06AB
:10A1D00006D44020FFF762FA238D43F04003238525
:10A1E00085B194F82C3043B1B4F80720B4F80530A9
:10A1F0001343B7F88820134304D0B4F8093001336F
:10A20000A4F80930B8F1000F00F0D480B4F805309C
:10A210000133A4F80530002384F89530404805F058
:10A2200049FE029830B10FF0C7FD216B0022027287
:10A2300004F0BAFF039B33B1216B00221A720C2287
:10A24000039804F07FFFB9F1000F7FF425AF238D51
:10A250001B063FF523AF8020FFF720FA238D43F044
:10A26000800323851AE745467FE7B9F1020FD4F84A
:10A2700030B012D8B9F1000F1DD19BF88C300133EA
:10A280008BF88C30002E3FF476AFDBE93C320133A3
:10A2900042F10002CBE93C326DE7B9F1030FECD19A
:10A2A000238D0120216C43F480538BF88400238597
:10A2B000FFF7ECF9E1E7002EDFD0238D9BF894B097
:10A2C00043F4805323850AF061FF042894F89C30FE
:10A2D00007D1BBF1000F0CBF1F221B22934228BFE6
:10A2E00013469E420BD8D4F88830002B3FF443AF7E
:10A2F00094F894306BB12020FFF7D0F93BE794F845
:10A300003430012043F0100384F834300DF068F944
:10A3100031E7464630E700BF304E0120804E012035
:10A320005C4E01200BB10AF0BDFB94F8953001336F
:10A3300084F89530238D43F48063238597F8753036
:10A34000033B012B11D801200DF04AF90AF01EFF42
:10A35000011FD1F1000949EB01091B2E4FF0000646
:10A3600098BF4FF0000935460BE704F0A1FF814686
:10A370000028E8D10646054603E794F89510012029
:10A38000FFF75CFA00287FF41AAF1EB103A9012081
:10A39000FFF7E8FD0020FFF737FB002E3FF416AF74
:10A3A00003A90220FFF7DEFD10E703A90320FFF752
:10A3B000D9FD09E7B4F807300133A4F807302DE7D9
:10A3C000DD97040035A00400019904000D970400F6
:10A3D0000D4B0321186830B50D4690F8A52090F874
:10A3E0004B400132B2FBF5F303EB4303D31ADAB26D
:10A3F00044FA03F3DB0703D4013911F0FF01F0D174
:10A4000080F8A52030BD00BFD04E0120014B186858
:10A410000FF058BFD04E012008B504F009FC014BE5
:10A42000187008BD10300120054B10B41C68827CE8
:10A43000836804F1420194F8410010BC11F088BD1A
:10A44000D04E01202DE9F041054617461E460C4628
:10A4500019B1AB6853BB01201FE0DFF86080D8F86A
:10A46000000000F15B0390F85A2000F1780190F8A9
:10A470007E0011F06DFDD8F804305A79D8F800301C
:10A48000082A04D093F84E40A21A5442544193F83B
:10A490005630012BDDD023B1002000F00100BDE8D3
:10A4A000F0810028D5D1002CD3D1F5E7002FD2D1EF
:10A4B000002EF1D02846FFF7B7FFEEE7D04E01207F
:10A4C000024B18686C3001F035BF00BFD04E012040
:10A4D00038B50F4CFFF7F4FF656801F0E5FE6368DF
:10A4E0002860186820B940F2EC413220FEF774F978
:10A4F00010F019F810B940F2EE41F6E70BF02CF924
:10A5000000200BF089F9636804221A7138BD00BF7E
:10A51000D04E012038B5194D04466B681B79022BCB
:10A5200004D940F6F9013220FEF756F92B68027C77
:10A5300083F8A4201A44C168996692F8242183F80C
:10A5400020214268C3F88820037A022B0ED00AF03B
:10A550000BFF0BF0A7F90AF099F809480BF0E6F8A1
:10A5600008480BF0DDF808480AF06AFF637C23B165
:10A570002B685B6E0BB101221A6038BDD04E0120F2
:10A580008430012055555500D6BE898E38B5054614
:10A590000C4603F06DFE420704D4A37803F0E003F9
:10A5A000402B30D003F064FE830704D4A37803F07B
:10A5B000E003202B27D0237803F03F03242B22D85D
:10A5C0000AF0EAFD94F90030A278002B637802F0DB
:10A5D0001F02B4BF4FF496711E2143EA02234B437E
:10A5E0001A1AB2F5877F0ED398420CD8074B29462A
:10A5F00018682388A0F82131A37880F82331BDE8BA
:10A60000384010F08ABA002038BD00BFD04E01207B
:10A6100008B5074B93F900207F2A04D140F292310C
:10A620003220FEF7D9F802707F221A7008BD00BFF1
:10A630001030012010B504788EB004F00F0404A986
:10A6400022460FF0AFFFFFF7E7FE042C33D11B4C7F
:10A65000059A2368107893F8781088422BD15078A7
:10A6600093F87910884226D1907893F87A1088422E
:10A6700021D1D07893F87B1088421CD1107993F8BF
:10A680007C10884217D1517993F87D20914212D1E4
:10A690009DF8212093F87E309A420CD10DF10F00E5
:10A6A000FFF7B6FF9DF90F3004A90093237B227AB0
:10A6B00060680FF04AFF03200EB010BDD04E01209D
:10A6C0002DE9F04387B0194C06460F460DF11700EF
:10A6D000FFF79EFF65682B79032B20D02B79062B83
:10A6E00014BF4FF001094FF00309236803F142083A
:10A6F0000AF04CFD9DF917303A46CDF80C903146E2
:10A700000293237ACDE900034346284601F092FEE6
:10A7100040B1606807B0BDE8F04301F027BE4FF0DC
:10A720000009E2E707B0BDE8F08300BFD04E01208A
:10A730002DE9F043304D87B004460F466E68B3797B
:10A740008BB3D5F8008098F8953033B90378002B97
:10A7500014BF0223012388F895303379062BDAB22F
:10A7600025D0072A0CBF4FF002094FF001090DF167
:10A770001700FFF74DFF0AF009FD9DF91730CDF8DE
:10A780000C903A46029321462B7ACDE9000308F15A
:10A790004203304601F04EFE28B16378DB0609D44F
:10A7A000686801F0E3FD002007B0BDE8F0834FF0DA
:10A7B0000309DCE7A1690220FFF7E8FEB8B1002237
:10A7C0002B6883F8962062696AB15178C1F303114E
:10A7D00083F897101178527802F00F0241EA0222B2
:10A7E000A3F89820E0E7FF2283F89720DCE7686869
:10A7F00001F0ECFDD7E700BFD04E012010B50446B4
:10A800008AB0FFF709FE237803F00F03072B02D06D
:10A8100001200AB010BD694620460FF056FF684679
:10A820000FF0FBFF9DF80030002BF1D19DF80130B7
:10A83000DB07EDD50C4C019922689DF8110002F15F
:10A84000780392F87E2011F083FB0028E0D0206886
:10A850000121A03011F009FAFF216846FFF768FFD7
:10A860000130C0B2D5E700BFD04E01200D4A536879
:10A8700010B51979022904D841F2A6413220FDF71A
:10A88000ABFF1979082902D941F2A741F6E71B79F4
:10A89000126903F180439268033BBDE8104052F80F
:10A8A00023301847D04E012010B5054C637A2BB1E8
:10A8B0000AF0F8FF09F0EAFE0023637210BD00BF42
:10A8C000D04E012010B5054C23792BB10AF0EAFFD8
:10A8D00009F0DCFE0023237110BD00BF28560120C3
:10A8E00010B5094CFFF7E0FF012263681A710023DD
:10A8F0002268A2F8213182F82331FFF7E1FD2068B8
:10A90000BDE8104010F0D6BAD04E012008B5044B77
:10A91000586801F05BFDBDE808400FF0DBBC00BFEC
:10A92000D04E0120062938B51D469DF8104019D992
:10A9300008291BD802B18CB143689BB912B943787E
:10A94000DB0615D40B4B5B6818680FF00DFE00B1E9
:10A9500034B92DB903F0A4FF00F00104204638BD3E
:10A960000120F9E79DF814402C43F7E70024F5E7B0
:10A970000124F3E7D04E012038B50D1E04460CBF6C
:10A9800005200320104403F0FBFF094B587270B1FF
:10A990005DB9033C012C8CBF5024552409F04AFEBC
:10A9A0002046BDE838400AF071BF4024F6E738BDC4
:10A9B000D04E0120F8B53D4CFFF782FD656801F0EF
:10A9C00073FC63682860186820B940F2494132205E
:10A9D000FDF702FF0FF0A7FD054610B940F24B410D
:10A9E000F5E7236893F8A6306BB123681A6D93F8E6
:10A9F000A710C3F8102193F854200A4383F8542079
:10AA0000002283F8A620206890F8A430034493F82D
:10AA10002471636880F820711A7952B11B79012B77
:10AA200007D0002110F079F818B9BDE8F840FFF719
:10AA300057BF23681E4A93F8A530D05C0AF00AFD80
:10AA4000236893F8A420134493F82461022E2BD09A
:10AA500004D8012E05D040F2F971B8E7F31E012B9E
:10AA6000F9D801F01BFC31460AF010FC28460AF028
:10AA700073FE314601200AF017FD7B1E2A46384638
:10AA800059425941FFF778FF62680821002351714C
:10AA900021722168D3801372E37281F89530A3721A
:10AAA000237303231371F8BD0D20DCE7D04E012082
:10AAB000237D090010B50A4C0521206810F02DF8FF
:10AAC00018B9BDE81040FFF70BBF2368012093F8C9
:10AAD00020110AF001FF63680B221A7110BD00BF3C
:10AAE000D04E0120124A10B5536800B931B918464A
:10AAF00001F06CFCBDE81040FFF7F2BE197908299F
:10AB000004D841F276413220FDF766FE19790C290E
:10AB100002D941F27741F6E71B79126903F18043CC
:10AB20005268093BBDE8104052F82330184700BF77
:10AB3000D04E0120054B1A6892F85420920703D09A
:10AB40005B68186801F0DABB58697047D04E012085
:10AB500070B5304D06466B681A79032A0BD01A7906
:10AB6000042A08D0FFF7E6FF044640B941F2AE31AF
:10AB70003220FDF731FE18680FF0D5FCF4E72B68A2
:10AB800093F8543013B941F2B431F1E776B111F0D2
:10AB900038FE30B16B681A79022A0ED841F234318E
:10ABA000E6E7204611F048FE0028F3D16B681A79D9
:10ABB000022A17D841F29431DAE71A79082A02D921
:10ABC00041F23531D4E71B7920462A6903F18043ED
:10ABD0001269033B52F8233098470C2812D941F2EE
:10ABE000C731C5E71A79082A02D941F29531BFE782
:10ABF0001B792A6903F180435269033B52F82330E1
:10AC00009847EAE72B69DB68BDE8704053F82030CD
:10AC1000184700BFD04E012038B5FFF78BFF044620
:10AC200020B940F213513220FDF7D6FD0B4DFF2025
:10AC30002B6893F820110AF029FB20460AF08CFDBE
:10AC40002B6893F82031033B012B94BF2820002070
:10AC50000AF0E2FD6B6807221A7138BDD04E012060
:10AC600010B5074C606801F081FBFFF7D5FB206849
:10AC70000021A03010F0F9FFBDE81040FFF730BE12
:10AC8000D04E012007292DE9F043064687B00F4634
:10AC900090464568634C23D11DBB002A49D1D4E9B5
:10ACA000001091F8543013F0030218BF012213F082
:10ACB0000403827103D033785A1E53425341C37147
:10ACC00091F894304BB12368D3F89000503012F0D3
:10ACD00090FA10B9636801221A7207B0BDE8F083D8
:10ACE0003DB32946707C0FF0A2FA072F814661D14F
:10ACF000637A63B158B1B8F1000F52D0656811F0B2
:10AD00005CF9636868715B7923720123A3726368DD
:10AD10005879082855D17168707C12F060FA626821
:10AD2000054671680532707C03F0C0FD6368002839
:10AD300059D0236893F8540010F003000AD093F818
:10AD40004C3039460195304662689279009242460D
:10AD5000FFF7E8FD62682368907193F8540010F0E3
:10AD6000040009D093F84D30394601953046D27928
:10AD700000924246FFF7D6FD2B4B65681B68E871D1
:10AD80001BB1414630469847287272686AB3717C9D
:10AD9000236883F87E10116899679288A3F87C2055
:10ADA00023E0236893F820110129A7D1284603F056
:10ADB000B9FD6072637A002BA9D0B9F1000FA6D05B
:10ADC0009CE704AA0DF10F0103F094FD20B940F6B1
:10ADD000A6313220FDF700FD04A99DF80F0012F006
:10ADE000FEF90546A5E7D88018726268137AB3B9F0
:10ADF000D388003B18BF0123B06800283FF46DAF33
:10AE0000072F7FF46AAF517908293FF466AF002B12
:10AE10003FF463AF03F0A4FD0123E3725DE7012378
:10AE2000EAE700BFD04E0120803001202DE9F84F25
:10AE3000DFF8C0A0914604468846DAF800201F4695
:10AE40008168807C0FF0F3F992F848609AF8093035
:10AE5000054686F00106002B3AD092F854305B0785
:10AE60001DD592F84D30D3B192F84EB0BBF1080F1A
:10AE700023D0584603F0F8FC3043C6B245B39AF8E5
:10AE80000B303BB311F0A3F8002304468AF80B30D3
:10AE900089F8004088F800503E70BDE8F88F63687C
:10AEA00023B1DAF8043093F805B0DFE7DAF80430BC
:10AEB00018680FF059FB0028F3D1CDB19AF80A10A9
:10AEC00031B9A06803F02EFD04468AF8090038B9AC
:10AED0000024DDE7A168584603F0FCFD0446D7E7EF
:10AEE00011F06BF80828F3D0DAF804305871CFE786
:10AEF0002C46CDE7D04E01202DE9F043874D87B099
:10AF000004462E6896F85730002B47D06F68BB79FF
:10AF100023B9FA7912B93A7A002A3FD094F800801E
:10AF2000B8F1010F72D0B8F1020F00F0D380B8F180
:10AF3000000F33D196F8542091072FD00BB93B7AEC
:10AF400063B3637813F0100FC3F300170CBF012233
:10AF500008229A4322D10022A3688DF814208DF88C
:10AF60001520002B47D00DF1160305AA0DF1150190
:10AF70002046FFF75BFF2B6893F841609DF8143083
:10AF800083B92046FFF750FA70B92B6893F8553013
:10AF9000023B012B02D89DF8153083BB032007B07C
:10AFA000BDE8F08346F002065FB30DF117004FF0E5
:10AFB0000008FFF72DFBD5E9003903F142070AF03D
:10AFC000E5F89DF917303246CDF80C802146029302
:10AFD0002B7ACDE900033B46484601F02BFA0028C6
:10AFE000DCD0A1690120FFF7D1FA0028D6D02B6868
:10AFF00083F896803BE0FF268DF81630D4E7FE26D6
:10B00000D2E731462046FFF75BFBC7E796F82021E1
:10B010006378022A3DD103F01903192BBED196F8AB
:10B0200054305A0739D40DF11700FFF7F1FAD5E97A
:10B03000003703F142060AF0A9F80023FF22214657
:10B0400003939DF9173002932B7ACDE90003334621
:10B05000384601F0EFF90028A0D0A1690120FFF7E0
:10B0600095FA00289AD02B68012283F8962062690D
:10B07000002A4ED05178C1F3031183F8971011784C
:10B08000527802F00F0241EA0222A3F8982002202F
:10B0900085E703F01803182BC0E7616800232046FA
:10B0A000B1FA81F11A464909FFF7CCF900283FF4BB
:10B0B00075AFA3692A689B781F2B04D892F8493092
:10B0C000002BB0D16AE703F0E003402BABD192F83C
:10B0D0004A30F5E796F854309B073FF45FAF63784A
:10B0E00003F01803182B7FF459AF0DF11700FFF789
:10B0F0008FFA0AF04BF80023FF22214603939DF9B3
:10B10000173002932B7ACDE9000306F1420338464B
:10B1100063E7FF2283F89720B9E700BFD04E0120F4
:10B12000014B586801F052B9D04E01202DE9F04F83
:10B13000044689B0062900F2C580DFE811F06000FE
:10B14000E7000700C300C300C30026006E4D0AF0ED
:10B1500021FA2F6897F85430980714D06E68B379A5
:10B160008BB10DF11F00FFF753FA9DF91F3002223A
:10B170002146029330462B7A0193FF23009307F177
:10B1800042030FF0D2F903201FE05F4D6E68B379E0
:10B19000002B00F097802F6897F85420910717D55F
:10B1A0000DF11F00FFF734FA9DF91F3030460622DB
:10B1B000029321462B7A0193FF23009307F1420368
:10B1C0000FF0B3F9002309202B7309B0BDE8F08F0D
:10B1D000D30777D5570701D50AF0DCF90DF11F0029
:10B1E000FFF716FA9DF91F202B6802922A7A423344
:10B1F0000192FF220092062221466868C1E7424D73
:10B200002B6893F85420560737D56968CA79002A05
:10B2100033D0426893F85B001678864255D1567851
:10B2200093F85C00864250D1967893F85D00864290
:10B230004BD1D67893F85E00864246D1167993F8C2
:10B240005F00864241D1507993F8602090423CD112
:10B25000627C93F85A00101A4242424193F8560019
:10B2600001284ED0002A4CD193F84E30082B02D042
:10B270004A799A4245D00AF08DF96E68B379002B6D
:10B280003DD02F6897F85420930720D50DF11F006B
:10B29000FFF7BEF99DF91F30304600220293214688
:10B2A0002B7A0193FF23009307F142030FF03DF93E
:10B2B000012309202B736B68DA79002A85D19B79E9
:10B2C000002B82D10AF066F95DE70022C6E7D607B7
:10B2D00015D5500701D50AF05DF90DF11F00FFF7F4
:10B2E00097F99DF91F202B68214602922A7A423352
:10B2F0000192FF220092002268680FF016F90320E5
:10B30000D9E70A20D7E700BFD04E0120644D8168FD
:10B310002A68807C0EF08BFF92F854306E680746E6
:10B3200092F84890590796F806A096F807B089F069
:10B33000010940F18E8092F84D30002B00F0898099
:10B3400092F84E60082E00F08680304603F08CFAAA
:10B3500049EA00005FFA80F9002F7ED03046A168EC
:10B3600003F0B8FB06462B6893F8542093F841800D
:10B37000520749D5626893F85B10107888426ED105
:10B38000507893F85C10884269D1907893F85D10FA
:10B39000884264D1D07893F85E1088425FD11079EA
:10B3A00093F85F1088425AD1517993F86020914206
:10B3B00055D1627C93F85A10501A42424241696852
:10B3C000497908294DD093F84E30591A4B424B41D8
:10B3D000002E48D1B9F1000F47D02046CDE9042313
:10B3E000FFF722F8DDE90423BBF1000F0AD029683A
:10B3F00091F8561001294ED021B9002A4BD108B13D
:10B40000002B4AD10AF0C6F82B6893F854309B07FA
:10B410003FF4B9AE0AF0BEF8BAF1000F3FF4B3AE94
:10B420002046FFF701F8D5F8009000B9FEB10DF104
:10B430001F0048EA4608FFF7EBF89DF91F3002931A
:10B440002B7A01935FFA88F30093012209F14203FA
:10B45000D2E6767976E7002685E73E4683E7002246
:10B46000ADE70023B4E70120BEE73046BCE799F81A
:10B470005530023B012B3FF686AE002F3FF483AEE2
:10B480000DF11F00FFF7C4F89DF91F3002932B7ACE
:10B490000193FE23D8E70028B4D00A2095E600BF28
:10B4A000D04E012030B505468BB0FEF7B5FF2C78A5
:10B4B00028466946294D04F00F040FF006F92B6861
:10B4C000072C16D193F8201168460FF007F90022D7
:10B4D00021466846FFF7D6FB2B6893F82031022BF4
:10B4E00032D017D8012B1AD041F22F213220FDF78C
:10B4F00073F993F8542012F0060FE8D093F8A420C3
:10B50000134493F82421012AE1D19621002012F05E
:10B51000FCFCDCE7033B012BE6D8072C19E0062CEA
:10B5200002D00BD8022C0BD821466846FFF7FEFD4F
:10B530000446FFF7B9F920460BB030BD072C09D0FF
:10B540000AF028F80324F4E7072CFBD19DF800301B
:10B55000012BF7D16846FFF7CFFCE9E7D04E012079
:10B5600038B5154D2C6894F84830F3B16FF00043AE
:10B57000D4E920129A4208BFB1F1FF3F15D00BF079
:10B5800029FED4E92023904299410ED32B6893F8E9
:10B5900048305BB92D6803F0A7F904460BF01AFE9A
:10B5A000064BE4FB0301C5E9200138BD012003F08F
:10B5B0005DFA0028F9D0EDE7D04E012040420F009F
:10B5C00070B51E4D06462A6892F8233192F8210183
:10B5D0005F2B4FEA531100F03F0097BF184B002438
:10B5E0005B18DC7809F036FF2B6893F9580009F0F6
:10B5F00021FFFEB12B682246996E012009F0B6FFAB
:10B600002B68214693F89630022B14BFFF20402070
:10B6100009F03CFEFFF78EFA2B68064693F895106A
:10B6200019B902462046FFF7A7F93046BDE8704039
:10B630000AF092B82246AA21DFE700BFD04E0120CF
:10B64000237D0900F7B52C4C0746226892F8233178
:10B650005F2B4FEA531197BF284B00255B18DD780D
:10B66000936E13B10120FFF7ABFF2368D3F8880076
:10B670000AF0A6F8236893F85420910703D593F8AD
:10B680009610022905D052070ED593F89620012A6C
:10B690000AD1042D26D193F85930012B0CBF032178
:10B6A000042100200AF018F9D4E9006318689A36DA
:10B6B000D7B90EF059FF6368074618680EF05AFFB5
:10B6C00021680246304691F8963091F82011009199
:10B6D00039460FF056F8236883F820510023A372EF
:10B6E00003B0F0BD2946DCE70EF050FF01463046BE
:10B6F0000FF03CF8EFE700BFD04E0120237D09009A
:10B7000008B50120FFF79EFF024B06225B681A7105
:10B7100008BD00BFD04E012008B50020FFF792FF02
:10B72000024B05225B681A7108BD00BFD04E012094
:10B7300010B50446FEF7EEFE237A032B0AD1194B0F
:10B740001B68986E20B140F63E113220FDF744F898
:10B75000FFF736FF237A012B06D003D9023B012BDA
:10B7600012D910BDFEF734FE0E4C236893F9580031
:10B7700009F060FE2368002283F89520FFF71AF98C
:10B78000BDE81040FFF7ECBE064B1B6893F8953000
:10B790001BB9BDE81040FFF7BFBFBDE81040FFF781
:10B7A000AFBF00BFD04E012008B5044B586800F071
:10B7B000DDFDFEF731FE012008BD00BFD04E0120A7
:10B7C0002DE9F8436D4F0023064689467869D7F87E
:10B7D00000800370437009F0DBFF054630B9002597
:10B7E000032003F0CFFC2846BDE8F8837C69032ED4
:10B7F000237834D123F00F0343F0030323700C2389
:10B800006370D8F878307869C0F80930B8F87C30BF
:10B81000A0F80D3098F87E1010F0EFFD0021786947
:10B8200012F07FFB3B6893F8482003F1420993F83C
:10B830004180002A7FD14C46236841467869C0F890
:10B840000330A388A0F8073010F0CAFD4C4BD3F8A2
:10B850000C32002B00F0848009F09CFEBFE723F03F
:10B860002F032222396843EA4913627043F005032B
:10B8700023700B6D1B6AC4F80F300A6D936A180AA7
:10B88000E3741B0C2075637592F87E00138E0028FC
:10B890004BD04FF0640CB3FBFCF3A375D36A0028C4
:10B8A00046D06420B3FBF0F3E375C3F3072341F202
:10B8B00070702376D369A3F57A7C844595BF4FF4E5
:10B8C0007A7040F2E240B3FBF0F3B3FBF0F398BFC1
:10B8D00003F550639BB263761B0AA376938CE376E1
:10B8E0001B0A2377D38C63771B0AA377D2F8973090
:10B8F000C4F81F3092F89B3094F8242084F8233049
:10B900000B6D22F01F0293F8A23003F01F031343C4
:10B9100084F8243002F0D2FC94F8243003F01F03A2
:10B9200043EA401384F824306BE740F2E24CB2E77C
:10B9300040F2E240B6E793F8542052070DD593F851
:10B940004D2052B193F84E0003F0FEF80446002853
:10B950003FF471AF4FF001086EE77B685879F3E769
:10B96000052E7FF440AF3B6821681A6DC2F80A10BB
:10B97000A188D1811B6D83F8098034E7D04E012066
:10B9800000A0084010B500210320FFF719FF18B9E7
:10B99000BDE81040FEF7A4BF074C032120680FF05C
:10B9A000BCF80028F4D00121084609F095FF63682F
:10B9B00009221A7110BD00BFD04E01202DE9F041BF
:10B9C000044690B00D46FEF727FD237803F00F03E1
:10B9D000072B06D00124FFF7A3FB204610B0BDE8DB
:10B9E000F0812046A44C06A90EF06FFE206806A93F
:10B9F0009A300EF0E4FE23689DF8181093F8962014
:10BA0000914248D1032D03D193F89720FF2A13D0F8
:10BA10009DF8192012073ED50B9993F897004A78A4
:10BA2000B0EB121F37D1097802F00F02B3F898304B
:10BA300041EA02229A422ED12A46072106A8FFF7A0
:10BA400021F96368DA880AB91B7A23B30023089EB8
:10BA50008DF814308DF815308DF81630F6B10DF1E3
:10BA6000160305AA0DF1150106A8FFF7DFF92368F3
:10BA70009DF8146093F8415045EA4605EDB29DF8F3
:10BA800018209DF81580012A9DF8163008D0022A4A
:10BA90007AD0002A4BD0FFF743FB14E0FF25EEE7F6
:10BAA0009DF81900226800F0090792F89A10092FF2
:10BAB00002D041B1070706D592F85420500704D4AC
:10BAC00063689B799BB9012459E06268D279002AA6
:10BAD000F6D0324606A8FEF7B5FC0028F0D0206864
:10BAE000A03010F0E4F80028EAD00C2447E02368E6
:10BAF00093F854309A07E6D09DF819309B0700F16F
:10BB0000C280FF2106A8FEF7DBFDDCE706A8FEF7F2
:10BB10008BFC002840F0BA80236893F85530023B34
:10BB2000012BD0D8B8F1000FCDD0FE21EAE7236871
:10BB300093F854309F07C6D09DF81930980721D547
:10BB40006EB906A8FEF770FC48B9236893F8553023
:10BB5000023B012BB7D8B8F1000FB4D0FE256368C3
:10BB60001B7A33B1454B1B681BB10D9808B10F9977
:10BB70009847294606A8FEF7DBFD441CE4B2FEF711
:10BB800093FE2AE7FF25EAE7226892F854209107FE
:10BB900099D061688979002995D09DF8197007F0CE
:10BBA000090109298FD1920707F0020768D5002FF4
:10BBB00034D05EB30DF11700FEF72AFD00210320FB
:10BBC000FFF7FEFD0646D4E9003803F1420709F00D
:10BBD000DDFA01232A4606A903939DF91730029343
:10BBE000237ACDE900033B46404600F023FC002EBB
:10BBF0003FF469AF00283FF466AF2068A03010F032
:10BC000056F800283FF45FAF0B24B8E7002B83D031
:10BC100006A8FEF709FC0028CCD17DE70DF117003E
:10BC2000FEF7F6FC39460320FFF7CAFD0646D4E9C5
:10BC3000003803F1420709F0A9FA01232A4606A9B0
:10BC400003939DF917300293237ACDE900033B4615
:10BC5000404600F0EFFB002E3FF435AF00283FF4E4
:10BC600032AF2068A03010F022F80028CCD16068F4
:10BC700000F07CFB27E700BFD04E01207C30012084
:10BC8000002F3FF43EAF002E3FF440AF294639E786
:10BC9000F8B5184F0E46012178610020FDF740FAF3
:10BCA000054620B940F682013220FCF795FD4FF49D
:10BCB0009472002112F0D2FB01210846FDF730FA00
:10BCC000044620B14FF49472002112F0C7FB3B6987
:10BCD00013B940F68C01E7E730460EF039FB2846F1
:10BCE0000EF089FF24B12046BDE8F8400EF083BF76
:10BCF000F8BD00BFD04E0120014B024A1A617047C7
:10BD0000D04E012018310120036810B523B940F648
:10BD10006D113220FCF760FD044A13606C335360F0
:10BD20001369BDE810401B68184700BFD04E0120C2
:10BD300008B5044B586800F049FBBDE80840FEF721
:10BD4000CFBD00BFD04E012038B5044690F840006A
:10BD500000F0FD0004F14201003818BF012084F812
:10BD6000410002F06DFC94F84030023BDBB2012B45
:10BD700094BF0123002384F8483015D802F0B4FDA5
:10BD800005460BF027FA094BE5FB030194F8483010
:10BD9000C4E9200143B1002002F068FE20B940F65A
:10BDA00015213220FCF718FD38BD00BF40420F00BE
:10BDB0000149363010F010BE53A2050010B5084CF2
:10BDC0000222636820681A7100F0D2FC38B920683A
:10BDD0000EF073FB2068BDE810400FF06BB810BD8B
:10BDE000D04E0120013808B5C0B20A4B41B103283A
:10BDF00001D8185C08BD40F2B9113320FCF7ECFC07
:10BE0000032802D803441879F4E74FF4617106203F
:10BE1000F4E700BF297D090008B50EF0B6F8054A21
:10BE2000D2E84F3F0133DBB2C2E8413F0029F7D1EE
:10BE300008BD00BFE84E0120024BA0F10801586880
:10BE4000FFF7EABFE84E01202DE9F84F1E463C4BB4
:10BE50000D46934600211A7804689DF828709DF8D5
:10BE60002C809DF930909DF834A0016032B9A4F186
:10BE700008015868BDE8F84FFFF7CEBF1A2204F159
:10BE8000090012F0EBFA0123A372BBF1060F4FD8A1
:10BE9000DFE80BF00433394E434E3D00E37A23F0E4
:10BEA000130343F01303E372012304F10E0241462E
:10BEB0002846237547F6FF7384F81890E38204F14F
:10BEC0000D030EF004FBE37A5B0736D5BA1E04F1CE
:10BED0001C03012A8BBFAA6832681168E2618ABF1D
:10BEE000E161B28892889A80E7760023237215492F
:10BEF0002046BDE8F84F10F06FBDE37A23F015033C
:10BF000043F01503CFE7E37A43F01003CBE7E37A7E
:10BF100023F0120343F01203C5E7E27A4AF01A0A4B
:10BF200022F01B020AF01B0A42EA0A02E272BBE795
:10BF300040F22B413320FCF74FFCFF23E376D4E79C
:10BF4000E84E012049BF04002DE9F04F05468DB0B1
:10BF50000C4600200121FDF71FF9064620B940F2EA
:10BF6000C7113320FCF738FCA8300EF0C9FD18B11A
:10BF700096F85430042B2ED130460EF0E3F950BB26
:10BF8000B64C04F1080604F10C07AB6A93B92846D5
:10BF9000FFF752FF4FF40073ADF804309DF8043002
:10BFA000002063F307009DF8053063F30F200DB008
:10BFB000BDE8F08FA96A0B68B142AB624FF0000395
:10BFC0000B704B708B70CB70DFD0B942DDD06068E6
:10BFD000FFF722FFD9E7AF6A37B3A14B9F4226D0C4
:10BFE000043B9F4223D007F13B0A4FF0000802F0C8
:10BFF000FBF88146B8F1000F40F0008102A95046DD
:10C000000EF063FBB9F1000F16D004F10D00EE7ACB
:10C0100016F0100613D09DF81860059932460CF002
:10C02000A1FF4FF0010828E005F1330ADDE74FF0EA
:10C0300001084FF0000ADAE704F11C00E7E7002FDF
:10C04000EFD09DF80830022BEBD0014695F8323046
:10C05000E522504610F059FB95F83230064603446D
:10C06000504685F8323010F048FB95F83280A8EB46
:10C070000000D0F1000848EB0008B9F1000F00F013
:10C08000C180EB7AD90604D45B216AE7C846002652
:10C09000F7E713F0040FAA7A95F80DE004F1060013
:10C0A00005F10E0C30D0E97EFE292DD11123E2706E
:10C0B00084F805E0237013010233637001232371B8
:10C0C000D5F80E30C4F80630BCF8043083802173F4
:10C0D000EB69C4F80D302B8CA4F811302B7EE3747F
:10C0E0005E4E06F1080A57453BD12379022205F13D
:10C0F000280062F3461323710EF005FA0227284642
:10C10000FFF79AFE04263FE006F10A030321E270DE
:10C1100053432170023384F805E06370D5F80E3084
:10C12000C4F80630BCF804308380267326442B7E86
:10C130007373EA7A12F0080002D004232371CFE768
:10C1400002F00303032B01D12071C9E7520701D587
:10C150000123F3E7022BF1D00BB92171C0E7A22133
:10C16000FFE606F10C094F4515D105F128000EF048
:10C17000CAF96A7D6AB92379042662F346132371EA
:10C1800002272846FFF758FE8DF804608DF80570E9
:10C1900004E70026F4E747B3B8F1000F20D005F11B
:10C1A000280840460EF0AFF939467068FFF734FEB4
:10C1B000AB6A0022534585F8322096D04B4505D115
:10C1C0002379404662F34613237195E79DF80830C2
:10C1D000022B05D1237923F068030127237191E70E
:10C1E0002379012262F34613F7E7EE7A16F0100680
:10C1F000CAD0237967F3461323717FE700287FF4C1
:10C2000045AF0646042305F12301237006F1180308
:10C21000AA7A5343E270221D0233637005F10B03C7
:10C2200053F8040B8B4242F8040BF9D195F814A093
:10C2300095F815B002F016F8C1F34029504649466A
:10C24000FFF7D0FD6073BBF1000F04D0494658469C
:10C25000FFF7C8FDA073E67642E700BFE84E012075
:10C26000F44E0120343270B5054692B20C461E469B
:10C270000DF053FE25B1034A5560147456741470C2
:10C2800070BD00BFE84E012010B5034C60680DF092
:10C2900066FE237C237010BDE84E0120014B587CC4
:10C2A000704700BFE84E012038B5134D68680DF0A7
:10C2B0005CFE044620B940F247113320FCF78CFAAB
:10C2C000D5E84F3F013BDBB2C5E8413F0029F7D13C
:10C2D00004F108033422184612F0C0F847F6FF7242
:10C2E0000121E462E283FF22627584F82320E27C6C
:10C2F00061F34612E27438BDE84E012038B5436A56
:10C30000044693B90A4D68680DF02FFE606220B9AB
:10C310004FF4B0713320FCF75FFAD5E84F3F013B93
:10C32000DBB2C5E8423F002AF7D1606A3B3038BD36
:10C33000E84E0120036810B504465BB1596A49B163
:10C3400001F10802934204BF00230360064B5868C2
:10C35000FFF762FD216831B1034B08395868FFF7D8
:10C360005BFD0023236010BDE84E012038B5046852
:10C3700005469CB11349204610F037FB124B0022B2
:10C380001A735A739A73DA73EFF3108272B6A16A52
:10C390000C3399B9A362E36202B962B62C68616A90
:10C3A00049B101F108039C4203D0074B5868FFF7DD
:10C3B00033FD0023636200232B6038BDE16A0B600C
:10C3C000E9E700BF49BF0400E84E012070B50668E8
:10C3D000044656B3716A154D41B101F108039E42FE
:10C3E00002D06868FFF718FD0023736221684E7D54
:10C3F000B6B100232B726B72AB72EB72EFF310824B
:10C4000072B6886A0A4B40B98B62CB6202B962B6D7
:10C410002046BDE87040FFF7A9BFC86A0360F4E793
:10C4200008396868FFF7F8FC266070BDE84E012007
:10C43000F04E01202DE9F0470468914606460D466E
:10C440009A469DF820209DF82C8024B94FF448711D
:10C450003320FCF7C1F9664F3B78B3B9B8F1020F4E
:10C460000DD009D9B8F1030F0CD03368002B00F0C0
:10C470008A8040F23D31EBE7FFF75CFFF5E7FFF71D
:10C4800075FFF2E7FFF7A2FFEFE7636A0BB9402100
:10C49000DEE783F81180CB687BB1097C238E0B44E7
:10C4A00040F272618B4207DDFFF790FF3368002B8B
:10C4B00069D040F25A31CBE723860123A3729DF95C
:10C4C00028302376B8F1000F60D122756B691BB15B
:10C4D0005B78C3F30313A375EB6913B15B88A4F80E
:10C4E00019302A78511E4B424B41E17A63F3000127
:10C4F000C1F34003022A08BF43F0010363F3410183
:10C50000C1F34003002A14BF002303F0010363F3C7
:10C51000C301AB68E1721BB1CBB243F00403E37219
:10C520002B6A13B193F90030E3756B6843B104F1E2
:10C530000D0304F10E029DF8241028460DF0C7FFEC
:10C54000AB688BB1A9F1020104F11C02012995BF6E
:10C55000DAF800301968E361E16194BFBAF8043099
:10C560009B88938084F81B90A969B8F1000F0FD1C4
:10C5700079B38B784A7803F01F0352EA032228D15B
:10C580003046FFF7D7FE0020BDE8F08762759DE7D3
:10C590000022636A1A705A709A70DA70A26AEAB955
:10C5A000A362E36289B14A78897801F01F0152EAF7
:10C5B00001220AD1A16A3A727A72BA72FA720D4AEB
:10C5C00079B9A2620023E26233600B49204610F081
:10C5D0000CFA636A3BB940F2971139E7E26A1360DB
:10C5E000DFE71A60EEE7002301206362CCE700BFBB
:10C5F000E84E0120F04E012049BF040010B590F82C
:10C6000054308A1E012BD2B205D1022A2CD8184BE5
:10C6100033F8120010BD03291DD002291FD14FF499
:10C62000E1700024124B03EB4403DB88033903441D
:10C63000012903F196038CBF00202820022A4FEA2B
:10C64000400094BF0B4940F64802184498BF31F8A7
:10C6500012201044DEE740F264600124E2E740F279
:10C66000E6204FF4B073E1E740F64800D2E700BFA0
:10C67000327D0900327D0900014610B504460E489E
:10C680000AF0D0FD202884F8170111D021460A486D
:10C690000AF0C8FD202884F81E010BD194F8170178
:10C6A0000AF0B0FD20B940F28F212120FCF794F868
:10C6B000002010BD0120FCE723AC0500014B1870E1
:10C6C000704700BF113001207FB590F8143103F09E
:10C6D000FF0223B140F2B7212120FCF77DF80C784E
:10C6E000039214F0010318BF8D68CDE9012218BF31
:10C6F0000195A60707D504ADCE6805EB8305013388
:10C70000DBB245F80C6C65072BD504AD0E6905EB63
:10C7100083050133DBB245F80C6C013B134D80F807
:10C720001D314B68C0F8C830C0F8F83040F27123B2
:10C73000A0F8FC30002315F8011B0C420BD004A913
:10C7400000EB820601EB8201013251F80C1CD2B2DF
:10C750002B39C6F8CC100133DBB2032BEBD104B07C
:10C7600070BD002BD9D14FF43471B5E73E7D09007F
:10C7700090F823315F2B4FEA53112DE9F04F044617
:10C7800089B000F2A5808F4A0A4492F80F90B9F15F
:10C79000040F04D100224FF0030980F81F2194F9FF
:10C7A000212103F01F0394F82271002A47EA03278E
:10C7B00094F82131B4BF4FF496721E22DB0902FBBC
:10C7C00007F70CBF4FF01E0B4FF4967B08F0E4FC0C
:10C7D0003D1A08F023FD94F82131804605EB0B0A41
:10C7E00013F0400FB8440CBF4FF4FA7632260FF026
:10C7F0006DFA754B0644B5F5977F0AFB06F606F50C
:10C80000742606F23F26B6FBF3F66AD394F8153188
:10C8100003F0FF0A002B5ED1484609F0E5F96B4BA7
:10C820004FF47A7253F8297007F52243B133B3FB02
:10C83000F2F5E2355D4405EB46050544484609F04E
:10C84000D3F90190484609F0D7F949468346204676
:10C85000FFF7D4FE00F18C03019AA7EB0B072B44E2
:10C860008DF808A08DF811A09B1A4FF47A72B7FBCF
:10C87000F2F7DF1BD4E92C320397BB3B42F1FF32C6
:10C8800013EB080342F100029B1B62F10002CDE9A9
:10C8900006324F4B1878FE2803D094F854305A07CC
:10C8A00001D40AF005FE8DF8100002A994F81701D2
:10C8B000C4F8D870C4F81851DDE90623C4E92E2362
:10C8C0000AF02EFD38B940F204712120FBF784FFF5
:10C8D0004FF0000963E708F0B9FE0AF07EFC012082
:10C8E0005EE048464FF47A7A09F07EF9374B53F808
:10C8F000295005F2E737B7FBFAF720375F44474482
:10C9000037440744484609F06FF90190484609F05A
:10C9100073F9834649462046FFF770FEA5EB0B05E9
:10C9200000F18C03019AD4F8D8903B44B5FBFAF59A
:10C930009B1A5D1BA94514D394F81C31A8F110086B
:10C9400002A802948DF818300223A8EB060603977C
:10C950008DF81030002305968DF81930FFF7D4F9C3
:10C96000BDE71B4B93F800A0BAF1FE0F03D094F87B
:10C9700054305B0702D40AF09BFD824650460AF011
:10C98000A1FDA5EB09035146192B38BF192383429A
:10C9900028BF034618461D460AF029FD18B100209D
:10C9A00009B0BDE8F08FD4F8D8302B44A3F1820051
:10C9B000C4F8D830C4F8E0000AF0FEFD0028BBD16E
:10C9C000EDE700BF327D090040420F004C800900B6
:10C9D0001130012008B50B4B30B101280DD040F6C5
:10C9E00065012120FBF7F8FE18601A6841F669031B
:10C9F0009A4206D940F66E01F3E740F6C4121A6077
:10CA0000F3E708BDFC4E01202DE9F04F04468FB03E
:10CA10001E468B460392BDF860800AF0DBFB814620
:10CA2000204604910DF066FFD4F8CCA00546002EF8
:10CA300000F02482002800F0428220460EF0E5F843
:10CA4000039B80F00106F6B2002B00F0188119F567
:10CA5000FA630593049B43F10003069303F0A2FBE2
:10CA600003F05AFB074604F1E8003946079003F04B
:10CA70002BFBD4F8101111B107980EF095F81FB1E7
:10CA8000B7F92420A4F80C21B5B1D4F8F050B7B10F
:10CA9000B868059BD7E9002100938018069B2A46B9
:10CAA00041F10001019310F0C6FB854208D240F22B
:10CAB00067312120FBF790FED4F8C850E7E73846ED
:10CAC000079003F075FB059B0798D4F8C8C0C518FC
:10CAD000069B43F10007B8F1000F00F0CB801FFA6E
:10CAE00088F842F2107329463A46E8FB03120CF22A
:10CAF000CF730344B3FBFCF30CFB03F3EB1A67F1B6
:10CB00000000C4E93A300123C4E92A124FF00008BA
:10CB100004EB08022046069392F824110DF0ADFEB6
:10CB20000590069BD4E92A21521B61EB0701012ADB
:10CB300071F100004FF00000C0F2908192458841F1
:10CB400000DB924604EB8808D8F8CC20524594BF0D
:10CB5000C4F8DC20C4F8DCA026BB1BB35900B4F930
:10CB60000C0189B210F041F8B4F80C21D4F810315E
:10CB70004FEAE07C121A12B2A4F80C2143B1A3F8D8
:10CB8000EC21D3E9722112184CEB0101C3E97221A7
:10CB9000D4E93A322D184CEB07071B184CEB020274
:10CBA000C4E93A32039B2BB1D4E93A23C4E92C57A8
:10CBB000C4E93023059B4FF000082A462046C4F8FC
:10CBC000D8303B46C4E92E578BF809800DF0A8FEFB
:10CBD000059B8BF80800CBF80430002E00F049814B
:10CBE000012304998BF80030D4E92A32B3EB09030E
:10CBF00062EB0102012B72F10001C0F23181B34FEF
:10CC00009F4278EB020200DB1F46D4F81031D4F8C3
:10CC1000C880002B40F0298107262046A8FB065635
:10CC20000DF068FE002800F01D81D4E92C32ED18CB
:10CC300046EB0206A945049BB3410FD2B5EB0905AB
:10CC4000049B66EB03066FF00103AB424FF0000359
:10CC5000B34102D3AF4228BF2F46B846CBF810806D
:10CC6000D4F8DC00059B984234BF002001200FB0AF
:10CC7000BDE8F08F4FF0FF316FF0004237E7002E34
:10CC800038D06FF00043D4E92A129A4208BFB1F1BC
:10CC9000FF3F2AD094F81C312046234493F82411F6
:10CCA0000DF0EBFD039B19F1AB0205468DF820302A
:10CCB000049B099008A843F10003CDE90C2302234B
:10CCC000ADF828300AF066FB10B94FF49661F0E633
:10CCD000D4E92A320C995B1A0D9962EB01025B1BB5
:10CCE00062F10003002BC0F2B2804D46049F012682
:10CCF00000230BE7D4E93A37D4F8C8500026A9EB53
:10CD000003025919B2FBF5F205FB02F247F10007E5
:10CD10005218A2EB090147F10007AA290DD8D4F84F
:10CD2000B810C91AB1FBF5F105FB0133D31AB3FBF7
:10CD3000F5F3AD1847F10007E8E694F82411204612
:10CD40000DF09BFDD4F8B820D4F8C85009902046C7
:10CD50008DF820608DF82960D4E93A13521AB2FB9D
:10CD6000F5F26A43521843F10003CDE90C230DF0AC
:10CD7000D7FD29468DF8280008A80FF0A2F9034630
:10CD8000DDE90C57C2E651F8042F013302F12B0CF8
:10CD9000BC459FBF821A08F10108BF185FFA88F8E6
:10CDA000DAB29645EFD804EB0803204693F8241135
:10CDB0000DF063FD384404EB8803D3F8CC30834294
:10CDC00009D3A3EB070ABAF1000F24DA4FF48D61FF
:10CDD0006FE62F466AE094F81D11D4F8C82041454B
:10CDE00011D908F1010895425FFA88F808D204EBDE
:10CDF0008803D3F8CC3003F12B029A461546E2E7BC
:10CE000040F2424155E69542F7D352009542F4D3A1
:10CE100040F25F414DE6AD19059B20464FF00006FC
:10CE200043F10007D4E92C230DF0FFFCD4F8C830FF
:10CE30005843D4E93A321B18204642F10002C4E9B3
:10CE40003A323B462A460DF0F0FC034660E6039B6F
:10CE50004D46049F01269A46984659E6824671E659
:10CE60004746D2E6D4E93032E1E64FF0FF352E46B0
:10CE7000E0E68BF80060CBE90457F1E6039B002B5A
:10CE80007FF4E5ADD4F8C87009F1AB05D4E93A23D5
:10CE9000A9EB0206B6FBF7F67E43B618A5EB06052E
:10CEA00043F10003AF42059393D8EF1B002394F89E
:10CEB0001DE104F1C8016FF02A00984670E7039B5A
:10CEC000002B3FF417AF2E46C1E500BF0040420FD4
:10CED0000138C0B2032808B504D94FF461710620A7
:10CEE000FBF77AFC014B185C08BD00BF4E7D0900C2
:10CEF0000138C0B2032808B504D94FF46171062087
:10CF0000FBF76AFC014B185C08BD00BF6B7D090094
:10CF10000138C0B2032808B504D94FF46171062066
:10CF2000FBF75AFC014B185C08BD00BFCC7D090023
:10CF30000138C0B2032808B504D94FF46171062046
:10CF4000FBF74AFC014B185C08BD00BFD77E090007
:10CF5000014B1868704700BFD44F012008B5034645
:10CF600010465A1E032A10D84A1E032A0DD8084A12
:10CF7000012951700CBF00210A2110719370917228
:10CF80001946FCF713FB002008BD6FF01500FBE706
:10CF90003C350120074B5A8A38B142F01002987A8A
:10CFA0005A82DA8A9A839877704722F0100298831F
:10CFB0005A82F8E73C35012010B4094C637A58B125
:10CFC00043F004030029637210460CBF00230723BB
:10CFD000637110BCFFF7DEBF03F0FB03F2E700BF95
:10CFE0003C350120024B987CC0F30010704700BF15
:10CFF0003C35012040EA4100014BD870704700BF2A
:10D000003C350120F8B50D46074640F67A4CBDF890
:10D010001860A81FBDF81C1080B2604515D8941F79
:10D02000A4B264458CBF0020012087B9194C247933
:10D0300084B188B96FF45067EC19062C04D86FF4EA
:10D0400050641419062C07D9F8BD0020EDE797F8B5
:10D050007D40EDE70028F7D0954218D803FB011179
:10D06000B1F5FA7F13DCA6F10A0340F676409BB2D5
:10D0700083420CD810460DF05DFF42F2107341431D
:10D080005E43B6EB410F8CBF01200020DCE700209F
:10D09000DAE700BFE04F0120F7B5002304460E4653
:10D0A0001746CDE900336846FCF7B0F808B1002018
:10D0B00016E0009DA542F6D03046EB1C0DF034FF83
:10D0C0003946AA780EF044FF0028ECD005F10A0397
:10D0D0006A7A04F10A01607A0EF03AFF0028E2D081
:10D0E00003B0F0BD054A134692F8202053F8211BE7
:10D0F00011F8030BC0F380100EF02ABF6855012011
:10D1000001281ED8022B0DD1A2F57A700F4B984240
:10D1100019D8A1F57A70984215D88A428CBF12208E
:10D12000002070470A4882420DD8012B0CBF40F204
:10D13000527340F6C3139A4205D9A1F6C410054BA9
:10D14000E9E7122070473020704700BFA7F970024E
:10D150008FFD7002CBF3700210B504460A480DF043
:10D160007BF90A492046FFF7AFFA20460DF008F98F
:10D1700038B12046FEF7E8FD20460DF06AF90020A0
:10D1800010BD1220FCE700BFFC4F0120045001201D
:10D190002DE9FF4106788046012E40F09A80314605
:10D1A0000020FBF7F9FF054620B940F6337139201E
:10D1B000FBF712FBB8F80430002B40F082800DF032
:10D1C000C1F800287FD195F81431002B7DD1284675
:10D1D000FFF7C2FF0446002879D1594F3146304647
:10D1E000FBF7DAFF97F83810064619B110B940F688
:10D1F0004F71DCE73A7F0023CDE9023312F00103DF
:10D200001CBFF86A0290520741BF04AA02EB8303D5
:10D210007A6B43F8082C002945D096F81431002B7E
:10D2200041D0B8F80230002B3DD13B7F304600930F
:10D2300002ABBA6AB97F0DF0B6F8A0B330460DF074
:10D2400065FC06F14003804605F14002683653F85C
:10D25000041BB34242F8041BF9D12846FFF77CFFB8
:10D26000024610B140F67671A1E7B8F10C0F07D174
:10D27000014628460DF011FEF8B940F67A7196E79E
:10D28000B8F1000F02D040F67F7190E77B7F28460F
:10D29000296D43F0040385F854300DF0DAFD60B9D0
:10D2A00040F6817183E7B8F804202846B8F80210E8
:10D2B0000DF0F3FD002808BF0724204604B0BDE8A8
:10D2C000F0811124F9E73A24F7E70C24F5E712245A
:10D2D000F3E701210020FBF75FFF054610B940F698
:10D2E000947164E70DF0A1FB04460028E5D195F8A0
:10D2F000543095F8A62022B195F8A720134385F85D
:10D30000A600053B012BD8D82B6D13B940F6A471AC
:10D310004DE701210846FBF73FFF29464FF4947281
:10D3200006460BF01FFE0423316D304686F854305C
:10D330000DF08FFD0028C0D140F6A97137E700BF7E
:10D34000E04F012010B503210020FBF725FF044624
:10D3500070B90321FBF7E4FE044620B940F2933193
:10D360003920FBF739FA034B93F9641010F02FFAC8
:10D37000204610BDE04F01202DE9F04F87B0074651
:10D380008846008804A90EF024FE064600287CD1B9
:10D39000059D95F87531002B6DD0B8F1020918BFC5
:10D3A0004FF0010995F88F30232B95F8E13043EACF
:10D3B000D3030CBF89F0010A4FF0000AD90702D449
:10D3C000BAF1000F63D0B8789DF8104008B900F0AA
:10D3D0004FFF8DF80B00F87808B900F049FF2E4B8D
:10D3E0008DF80C00D3F800B0BBF1000F0BD00AF0A1
:10D3F000010320460DF10B022946009303ABD847E9
:10D40000044600283AD19DF80B20B2B39DF80C30A9
:10D410009BB3164695F87D2032B1B20703F00203A4
:10D4200037D5B3B302231E46FF2285F82D21B9F16B
:10D43000000F28D195F82C2102F0FF041ABB85F8C3
:10D440002C8103A985F82E61284685F82F31BB88E9
:10D45000A5F83031BA78ADF80E308DF80C20FA7896
:10D460008DF80D200EF07EFE002385F82D3120462C
:10D4700007B0BDE8F08F814694E70924BAF1000FA8
:10D48000F5D00023C6E73A24EEE70446EFE71A2476
:10D49000EDE70924EBE700BF5431012038B50EF069
:10D4A00056FD002501F0ECF9234C00F0EFFE0FF0E3
:10D4B00071FA02F06DFD01F017FC01F0E1FB0120B3
:10D4C00000F08CFE1D4B1E4A29461D601D4BA4F822
:10D4D00054501A601B22DD839A80F9221D8483F840
:10D4E00022501D77184B22835868184A1B892260E6
:10D4F0001422E06104F124002384A576A580A5759B
:10D5000010F0ACFF012342F2107204F13A0084F8EB
:10D51000575084F8243084F83930C4E90A2210F0D6
:10D5200092FC04F1440010F0B3FC0022002384F8C4
:10D530007050C4E91A2338BDE04F0120303101207A
:10D5400003021B00A45401206B7D09001B0048014D
:10D55000064B41F64C521B215A611974C3E9022251
:10D5600041F288329A61FFF799BF00BFA4540120AD
:10D5700073B5344D0446AB68C363334B1B79003B32
:10D5800018BF012380F87D30304BC3610FF01BFFC3
:10D59000064600F067FE8306297C53BF1B236B8879
:10D5A000AA881A46A4F86630294BA4F868201B689C
:10D5B00084F84410A4F846601BB194F97C102088CC
:10D5C0009847244B1B6813B1234920889847234967
:10D5D00020460EF0C7FD01236386214B1B6813B163
:10D5E0000021208898471F4B1B6813B10021208819
:10D5F00098471D4B1B680BB1208898471B4B1B6835
:10D600000BB120889847AB8804F114006A886978C8
:10D610000333033201919BB2297892B2009104F155
:10D620001801FBF72BFE636923B940F2CC61392066
:10D63000FBF7D2F8A36913B940F2CD61F7E70020F8
:10D6400002B070BDA4540120E04F012000093D004C
:10D650004431012038310120E84F0120C25401201B
:10D6600058310120483101204C3101205031012036
:10D670002DE9F34104460E4610F0EAF8002800F0C8
:10D68000B080204610F071F930B1B6F80130013B9E
:10D690007F2B01D9122004E0204610F06AF918B956
:10D6A0000C2002B0BDE8F08120460FF01EFF0028DC
:10D6B000F6D1204610F075F807460028F0D1204634
:10D6C00005F0ECF80028E5D042F21073B6F80180BE
:10D6D000F178204603FB08F810F032F90421307885
:10D6E000FBF75AFD054606213078FBF755FD2DB1B5
:10D6F00040B141F683413920FBF76EF808B3054687
:10D7000090F8BD70384E3368DBB1403528460FF0D5
:10D710007CFDB0B128460FF06CFD90B93FB1334BA2
:10D7200028461B68984760B141F69741E3E73049C6
:10D730003A46336828464969984710B141F69C41FA
:10D74000D9E7204610F009F9014640B94246204683
:10D7500003F0BEF9002842D041F6A541CBE72046B0
:10D7600010F003F940B902210DF10600FBF7A0FC0F
:10D77000054658B90D2094E7204610F009F9002815
:10D78000F1D11C4B1B79002BEDD183E700210EF06A
:10D7900036FCBDF80630204629462B8010F016F9DD
:10D7A000204610F0F5F888B9216A204610F0FAF802
:10D7B00001462846FFF7DCFE42462946204603F094
:10D7C00087F9024620B141F6C84194E70121F0E70C
:10D7D000084B1B6E1BB105F5917128469847002038
:10D7E0005FE742205DE700BF343101203C3101207A
:10D7F000A4540120E04F0120024B1B6803B11847DD
:10D800000C20704730310120014B93F964007047C0
:10D81000E04F0120B0F9002011B292B2F8B502F544
:10D82000A0639BB2B3F5206F37D8B0F902301DB2B8
:10D830009BB203F5A06080B2B0F5206F2DD802F244
:10D84000F64040F2BE5480B2A04228D803F2F6401F
:10D8500080B2A04223D800294FF00A04C4BF093285
:10D8600011B2002DC8BF093391FBF4F4C8BF1DB23B
:10D8700001F00EFA0A2367B2064695FBF3F138462B
:10D8800049B201F0F7F9074B1B6813B1A01B40B276
:10D8900008B90020F8BD9847FBE73020FAE71120CF
:10D8A000F8E700BF40310120034B5A8802801B7803
:10D8B00083700020704700BFA45401207FB5837897
:10D8C00006461A2B08D8042B04D9334A22FA03F34C
:10D8D000DB0705D412251AE0292B01D03B2BF9D107
:10D8E0003088B0F5706FF5D269460EF072FB88B9DA
:10D8F000019B93F8202102F0FF05C2B9B27883F8AA
:10D900002121FF2283F8202168460FF01CF82846C9
:10D9100004B070BD09213088FBF73EFC04460028A6
:10D9200037D002A9B0F8AC010EF053FB08B10C25BA
:10D93000EDE70821B4F8AE01FBF72EFC20B940F664
:10D9400035213920FAF748FF03781BB994F8C8311C
:10D95000032BECD1039B93F83621002AE7D194F8EE
:10D96000F02102F0FF05002AE1D1B4F8B021A3F8BC
:10D97000382194F8B82183F83A21027D83F83B21BD
:10D98000B27883F83C2184F8F021FF2283F8362115
:10D99000BDE70225BBE700BF2000380413B50088AF
:10D9A00069460EF016FB18B10224204602B010BDE5
:10D9B00068460DF09BFB0028F6D0019890F83231B4
:10D9C0000BB13A24F1E790F8DA3003F0FF04002BB2
:10D9D000F7D190F8D1309B0706D1FF2380F8323180
:10D9E00068460EF0B0FFE0E70249D2300EF0FAFFD1
:10D9F000DBE700BF4FD105002DE9F84F037804465F
:10DA0000032B03D912252846BDE8F88F4378032B52
:10DA1000F8D8437E8578002B50D1012DF2D100F04B
:10DA200027FC854340F09D8094F8029019F0010591
:10DA300006D001232269A168E078FFF761FB054663
:10DA400019F0020F07D002232269A168E078FFF7DE
:10DA500057FB2843C5B219F0040F00F0868094F8F4
:10DA600003B00423D4F808A0226958465146FFF7B2
:10DA700047FB284310F0FF05C5D1B9F1050F0ED1C2
:10DA800094F804900423E16862694846FFF738FB84
:10DA900005460028B7D1CB4563D18A4561D1237EA5
:10DAA000013B062BAED801210020FBF775FB054694
:10DAB00090B940F634613920FAF78EFE072DA1D8CF
:10DAC000A90706D5022D9DD1294B5B79002BA6D144
:10DAD00098E7002D96D0A2E7A8300DF011F818B104
:10DAE00095F854309A073ED1657EE278003DA178E2
:10DAF000A06818BF0125012AB4F800E014BFB2FAEB
:10DB000082F2022294F818C018BF5209CB071FD521
:10DB10004B0726690BD56769F319984207D243086A
:10DB20009E4228BF1E46831B9F4228BF1F46104BA4
:10DB300083F82150002519775A77A3F81EE083F85F
:10DB400020C083F82410C3E90A06C3E90C875AE70A
:10DB5000022902D1D4F81080E9E74B0748BF2769B2
:10DB6000E5E711254FE70C254DE7002D97D04AE753
:10DB7000E04F01202DE9F041054688B0002000F07B
:10DB80002DFB2B78AC788DF804306B7804F001060F
:10DB90008DF806408DF80530630748BF013600F068
:10DBA00067FB844349D10DF1060102AA05F1030880
:10DBB00040F2712E10468C46E3B29E4219D8214B9A
:10DBC00093F8200093F839308DF81C00A8788DF870
:10DBD0001D3030F0050332D110F0050F2FD01A4C54
:10DBE000D8B2864217D801A8FFF706FF08B0BDE8F3
:10DBF000F08104EB8403013418F803702B440CF813
:10DC0000017F9F88DB880EFB07F70EFB03F340F8CC
:10DC1000047F8360D0E711F8010F01280FD8D06886
:10DC2000A0F6C410A04206D852F8040F0133A0F6A3
:10DC3000C410A042D4D93020D8E71120D6E7122052
:10DC4000D4E700BFE04F0120CBF3700200B589B0EC
:10DC5000437940F271218DF8043083798DF80530D5
:10DC600001238DF8063003788DF80730B0F80130C5
:10DC70004B430393B0F803204A430D4991F8201019
:10DC80000592A2F6C4128DF81C1000218DF81D100B
:10DC900008498A4209D8A3F6C4138B4205D801A8C3
:10DCA000FFF7AAFE09B05DF804FB3020FAE700BFD9
