:020000040000FA
:10000000380C0020913D0000513E00004DED0000F5
:100010006DED00008DED0000CDED0000ADED0000B8
:10002000353E0000353E0000353E000065650000AD
:10003000573E0000353E0000937800005D3E000012
:10004000353E0000353E0000353E0000353E0000E4
:10005000353E0000353E0000353E0000353E0000D4
:10006000353E0000353E0000353E0000353E0000C4
:10007000353E0000353E0000353E0000353E0000B4
:10008000353E0000353E0000353E0000353E0000A4
:10009000353E0000353E0000353E0000353E000094
:1000A000353E0000353E0000353E0000353E000084
:1000B000633E0000693E00006F3E0000753E000098
:1000C000353E0000353E0000353E0000353E000064
:1000D000353E0000353E0000353E0000353E000054
:1000E000353E0000353E0000353E0000353E000044
:1000F000353E0000353E0000353E0000353E000034
:10010000353E0000353E0000353E0000353E000023
:10011000353E0000353E0000353E0000353E000013
:10012000353E0000353E0000353E0000353E000003
:10013000353E0000353E0000353E0000353E0000F3
:10014000A779000021680000353E0000353E000020
:10015000353E0000353E00007B3E0000813E000041
:10016000F9220100353E0000873E0000C54F000027
:100170008D3E0000353E0000353E0000353E00005B
:10018000353E0000353E0000933E0000993E0000E1
:10019000353E00009F3E0000353E0000353E000029
:1001A000353E0000353E0000353E0000353E000083
:1001B000353E0000353E0000353E0000353E000073
:1001C000353E0000353E0000353E0000353E000063
:1001D000353E0000353E0000353E0000353E000053
:1001E000353E0000353E0000353E0000353E000043
:1001F000353E0000353E0000353E0000353E000033
:10020000353E0000353E0000353E0000353E000022
:10021000353E0000353E0000353E0000353E000012
:10022000353E0000353E0000353E0000353E000002
:10023000353E0000353E0000353E0000353E0000F2
:10024000C3790000353E0000353E0000353E000019
:10025000353E0000A53E0000AB3E0000B13E000070
:10026000B73E0000BD3E0000C33E0000C93E000096
:10027000353E0000353E0000353E0000353E0000B2
:10028000353E0000353E0000353E0000353E0000A2
:10029000353E0000353E0000353E0000353E000092
:1002A000353E0000353E0000353E0000353E000082
:1002B000353E0000353E0000353E0000353E000072
:1002C000353E0000353E0000353E0000353E000062
:1002D000353E0000353E0000353E0000353E000052
:1002E000353E0000353E0000353E0000353E000042
:1002F000353E0000353E0000353E0000353E000032
:10030000353E0000353E0000353E0000353E000021
:10031000353E0000353E0000353E0000353E000011
:10032000353E0000353E0000353E0000353E000001
:10033000353E0000353E0000353E0000353E0000F1
:10034000DF790000353E0000353E0000353E0000FC
:10035000353E0000353E0000CF3E0000D53E000097
:10036000DB3E0000E13E0000E73E0000ED3E000005
:10037000F33E0000F93E0000FF3E0000353E000065
:10038000353E0000353E0000053F00000B3F0000F9
:10039000113F0000173F00001D3F0000233F0000F9
:1003A000353E0000353E0000353E0000293F00008C
:1003B0002F3F0000353F0000353E0000353E000075
:1003C0003B3F0000413F0000473F00004D3F000021
:1003D000533F0000593F0000353E0000353E00000D
:1003E000353E0000353E0000353E0000353E000041
:1003F000353E0000353E0000353E0000353E000031
:10040000353E0000353E0000353E0000353E000020
:10041000353E0000353E0000353E0000353E000010
:10042000353E0000353E0000353E0000353E000000
:10043000353E0000353E0000353E0000353E0000F0
:10044000FB790000353E0000353E0000353E0000DF
:100450005F3F0000653F00006B3F0000353E00003D
:10046000713F0000773F0000353E0000353E000040
:08047000353E00007D3F000055
:100480007FE97FE907F08ABF7FE97FE907F098BF3E
:100490007FE97FE907F0CABF7FE97FE907F0B8BFCE
:1004A0007FE97FE907F09EBF000000000000000028
:1004B000000000000000000000000000000000003C
:1004C00000015F5F02000000FE0B0000F565000008
:1004D0000004000000000000000000000000000018
:1004E00000000000000000000100FFC3000000C485
:1004F00060AB00200000000001015F5F030100000D
:100500001F0100005D10000000200000000000003E
:1005100001000000010000000000000000000000D9
:100520000000000000000000583A00200000000019
:1005300070000000BC40010080000000000F0000BF
:1005400001000000950600000100000001015F5F4E
:10055000000100001F000000BD3A0000000700007D
:100560000000000003000000010000000000000087
:100570000000000000000000000000004016002005
:10058000000000008000000070000000400000003B
:10059000C7400100600000000107000001000000EA
:1005A000453100000100000001015F5F0101000012
:1005B0001F010000551A000000100000000000009C
:1005C000000000000100000000000000000000002A
:1005D0000000000000000000585A00200000000049
:1005E000E540010070000000020F00000100000063
:1005F000450A00000100000001015F5F04010000E6
:100600001F0100004B2C000000050000000000004E
:1006100000000000010000000000000000000000D9
:100620000000000000000000586A002000000000E8
:100630000A41010040000000050700000100000021
:08064000F32900000100000095
:1006600038B500250648294600F58054D4F8002402
:10067000C4F804540EF013FCC4F8005438BD00BF95
:10068000586F0020024BD3F80434036000207047F9
:10069000587F00202DE9F04F04680546A5B0002CD6
:1006A00040F00E812022214604A80EF0F8FB14AF82
:1006B000202221460CA80EF0F2FB402221463846AB
:1006C0000EF0EDFBEA6905F11C039846B2B1042473
:1006D000EA6A05F12C03EAB10426ECB96FF0830451
:1006E000204625B0BDE8F08F002CF1D053F8041D52
:1006F0002246013C0029F7D01446E9E70324F5E738
:10070000002EEAD053F8041D3246013E0029F7D0EE
:100710001646E2E70326F5E740233A4600216868DB
:1007200007F0B8FE4028D9D10121DFF89CA1CDE91E
:10073000047005F1100904AF0AF5805B8C422ED1DC
:100740000CAF38460021614A08EB860ED2F800341F
:10075000A2F58059C64540D109B1C2F80034002342
:10076000CDE90233059BA968402BC2F80414049A12
:1007700040F09A80138D180A03285BD0012800F0FE
:1007800082801268831ECDE90221082B00F2868048
:10079000DFE803F04150555B61676D737E0059F8E7
:1007A000043F1A1D21D8DBF800C4D81C20F0030038
:1007B000CCF5A052904218D860440CEB0A02CBF85A
:1007C00000046868CDE9001207F064FE019A009900
:1007D000F860013147F8082FB0E758F804CF1CF152
:1007E000040F07D909B1C2F80034FFF739FF6FF0E1
:1007F0008C0475E70CF1030424F00304C3F5A05A3C
:10080000544500F10800EDD803EB090140E9021C52
:10081000234401219EE702AA0CA904A801F04FF885
:1008200004464FF00008464507F108073FD1FFF79F
:1008300017FF55E70CA904A800F0F2FCF0E702AAA4
:100840000CA904A800F0ADFDEAE702AA0CA904A8CF
:1008500000F012FCE4E702AA0CA904A800F05DFE77
:10086000DEE702AA0CA904A800F05FFFD8E702AAFD
:100870000CA904A800F05CFFD2E702AA0CA904A806
:1008800000F059FFCCE70CA904A801F0D3F8C7E7A2
:1008900002AA0CA904A801F0DAF8C1E70C480EF08E
:1008A00088FB6FF08504BCE76FF08004B9E7414630
:1008B00057E90223686807F0F7FD08F10108B2E77D
:1008C0006FF085040CE700BF586F0020587F0020B0
:1008D0007C2C000008B54FF4E652002102480EF0CF
:1008E000DEFA002008BD00BF981D00200023F7B5E8
:1008F0000C6807460E461546019314BB22B31460DC
:1009000001A8FFF7BFFEA8B94FF4667C104A0CFBA4
:1009100004F3D158A646013471B94FF0010E02EB31
:10092000030C42F803E0019910331344CCE901179A
:1009300034602B6003B0F0BD082CE8D16FF0840068
:10094000F8E76FF08800F5E76FF08600F2E700BF88
:10095000981D00200023F7B505680193013D072D80
:10096000036004D96FF08604204603B0F0BD01A8EF
:10097000FFF788FE04460028F6D14FF466735D4306
:100980000A4E73597719012BECD17A68019B9A4270
:10099000E8D105F110004FF46272214630440EF0A8
:1009A0007EFAC7E901447451DEE700BF981D0020BC
:1009B000002373B54C1E072C06461546019303D938
:1009C0006FF0880002B070BDC2B101A8FFF75AFEF7
:1009D0000028F7D14FF4667202FB04F1094B5C5812
:1009E0005A18012CECD19468B442E9D15468019AA8
:1009F0009442E5D1103119442960E3E76FF0860095
:100A0000E0E700BF981D002010B5044C0F222046DF
:100A100003490EF01FFA204610BD00BF60A8002059
:100A2000A12C000008B54FF40251044802F092FADC
:100A3000034807F011FE002008BD00BFE08700203A
:100A40003D1A00006FF47A72F0B50368044613444F
:100A50008DB0032B7CD8DFE803F002284C6B0369D0
:100A6000082B02D06FF080055FE08569042DF9D175
:100A70000021406808AA07F00DFD0828F2D12B4696
:100A80000221606806AA07F005FD0428EAD1616822
:100A9000314A63691160069ACDE90032DDE9082325
:100AA000A06800F01DF905463FE00369082BD9D185
:100AB0004569042DD6D10021406808AA07F0EAFC58
:100AC0000828CFD12B460121606806AA07F0E2FC76
:100AD0000428C7D16168204A236A116005AACDE9BC
:100AE0000132069B0093A068DDE9082300F072F94B
:100AF000D9E70369082BB5D1076A0C2FB2D10021C1
:100B0000406806AA07F0C6FC0828ABD1DDE9062339
:100B100008AE0096A06800F0E7F9054628B901463E
:100B20003B463246606807F0BFFC28460DB0F0BD7A
:100B30000369082B96D10021406808AA07F0AAFC97
:100B400008288FD1DDE90823A06800F0DFF9AAE7C3
:100B50006FF08505E9E700BF608300200246034887
:100B60000B460068012107F095BC00BF60830020A0
:100B7000024603480B460068002107F095BC00BF01
:100B8000608300201FB5CDE902010843019218D00F
:100B900004220D480DEB02010EF05CF908220B480F
:100BA0000DEB02010EF056F9019C0948094B0A4A67
:100BB000B4F5807F08BF1846034901F0AAF804B0D5
:100BC00010BD6FF08600FAE772A8002076A800201A
:100BD0008C85002074850020A487002030B5384B18
:100BE00085B09D6AA8470369042B03D06FF080008D
:100BF00005B030BDA847334C8368A360A847037D88
:100C000001A8237605F031FB0028EFD1019BA268F3
:100C100063609DF80C3021465343029A2A48B2FB88
:100C2000F3F22282294AE36001F025F80028DFD19F
:100C3000254801F052F8002834D1A8470369042B55
:100C4000D4D1A847224C8368A360A847037D01A89C
:100C5000237605F0FCFA0028C8D1019BA2686360E6
:100C60009DF80C3021465343029A1A48B2FBF3F226
:100C70002282164AE36000F0FEFF0028B8D1154832
:100C800001F02BF80028B3D013480EF092F9114868
:100C900001F03DF80028ABD10E4805B0BDE830406A
:100CA00001F01BB80D480EF084F9074801F02FF849
:100CB00000289DD1044801F010F80028BDD097E726
:100CC000388000007C1D00208C8500205C2C0000FA
:100CD000601D002074850020D62C0000B02C000080
:100CE00019462DE9F04F52EA010385B00646DDE9C9
:100CF0000E54104632D0072C5CD8B6F5807F02D057
:100D0000B5F5007F2AD83246FFF73CFF30B92B4BB0
:100D10009B68D90705D56FF0840021E010F18C0F96
:100D20001ED10027DFF8948044F44034DFF890901F
:100D3000DFF890B0DFF890A0C8F80450C8F8084079
:100D4000B5F5007F2C4628BF4FF400744846214675
:100D5000FFF704FFB6F5807F29D027B16FF086003A
:100D600005B0BDE8F08F4FF404730122CDE9004ACD
:100D7000CDE9023215494B460C22104800F06CFEBA
:100D80000028EDD153461248CDE900730B4A2346A3
:100D90000E4900F0E0FF0028E2D1D8F808302D1B02
:100DA00023F44033C8F808302744C9D1D8E74B466C
:100DB0005846E9E76FF08500D2E700BFA48700201E
:100DC000A4850020748500206483002072A8002080
:100DD0008C85002019462DE9F04F52EA010385B0B9
:100DE0008046DDE90E6A1046DDF8409005D16FF0CF
:100DF0008604204605B0BDE8F08FB8F5807F04D0AA
:100E000006EB0A03B3F5007FF1D84246FFF7BAFEBE
:100E100004460028EDD12E4F3D68B542E7D3AD1B07
:100E2000554528BF5546B8F5807FC9F8005021D1F7
:100E3000DFF8A080DFF8A0A0DFF8A0B0B5F5007F54
:100E40002F4628BF4FF4007733463A46514658465E
:100E5000CDF8008001F098F820B10023C9F80030E7
:100E60000446C6E739464046FFF782FEED1B3E4486
:100E7000E4D1BEE77B68B3F5047F25D8DFF860A036
:100E80000346CDF800A03A681349164801F07CF8F3
:100E900010B1C9F80040E3E74FF40073DFF8348085
:100EA00003940293CDF804803B680C2200933846EB
:100EB0005346094900F0D0FD0028EAD1294608EB45
:100EC0000600FFF755FE94E76FF0890491E700BF35
:100ED000A4870020A485002072A80020748500202B
:100EE000648300208C85002038B5054619461046DD
:100EF0002A46049CFFF746FE28B9034B1A689B68F4
:100F0000C4E90022A36038BDA487002010B50446C0
:100F1000194610462246FFF735FE80B9084B9B68FC
:100F2000DB070AD40748084B0849B4F5807F08BF9F
:100F30001846BDE8104001F017B86FF0840010BDEE
:100F4000A48700208C8500207485002072A80020D2
:100F5000F8B51D46036804465B680E461746984779
:100F60000B4BC0F3410013F8202063680699E0683A
:100F70001D442368B1FBF2F200FB065039469B6921
:100F800098470028B4BF6FF091000020F8BD00BF63
:100F9000702C00002DE9F3470A9C07469146002C6F
:100FA00057D0C26840681E183B6802FB01665B6848
:100FB0009847294BC0F3410013F82080B6FBF8FA9C
:100FC00008FB0AFA564524D03B68012250465B696B
:100FD00001A99847002804DA6FF0910002B0BDE83B
:100FE000F087A6EB0A03E218904501AA02EB030181
:100FF00004D9224648460DF02DFF08E0A8EB06056F
:1010000055442A4648460DF025FF641B02D10020B6
:10101000E4E700253B68A0455B690DD8B4FBF8FA0E
:1010200009EB05015246A81998470028D4DB08FBB4
:101030000AF2A41AEBD015443B6801225B6901A9AE
:10104000701998470028C7DB224601A909EB050063
:10105000D1E72046C2E700BF702C000008B5FFF7BB
:1010600039FC40B9FFF7D0FCFFF7DCFC18B9BDE84C
:10107000084008F061BF08BD2DE9F04F4FF00008AF
:10108000D0F8009089B0B9F828A006AF06460D4602
:10109000D2E900213846CDF8148000F0D3FCBAF52F
:1010A000A06F15D12B1D03936B6802932B680193DE
:1010B000F3680093B368D9F8042097E8030008F0B8
:1010C00037FD0446C0B90024204609B0BDE8F08FC2
:1010D00040F201539A4512D12B1D03936B68029382
:1010E0002B680193F3680093B368D9F8042097E85C
:1010F000030008F0C3F9E4E7C5F80480E4E7AAF2C6
:10110000025B1FFA8BF3012B1FD8D5F80080B8F1D2
:10111000000F02D16FF08004D6E76B68032BF9D97A
:10112000D9F8083041460120C8F8003005AAFFF779
:10113000DDFB04460028C7D1BBF1060F6DD8DFE800
:101140000BF0384725314F5A67000120D9F80810B5
:1011500005AAFFF72DFCAAF20753012B044603D979
:101160000028B1D18046E7E7D5F80080B8F1000F3C
:10117000D0D06B68032BCDD9D9F80830C8F800302F
:101180000028D9D0BAF5A16F9DD09DE705982B1DF9
:10119000D5E900120EF01AFF0446002893D0002370
:1011A0006B6091E70598D6E902120EF050FC0446F8
:1011B0008AE7D9F80430059897E806000EF02FFC6E
:1011C000044600283FF47FAF4046FFF7C3FB7BE7B0
:1011D000D9F80430059897E806000EF02CFCEFE7EC
:1011E0002B1D01936B68059800932B68D6E90212BA
:1011F0000EF04BFCD0E7059805F10C03D5E902127F
:101200000EF05DFC04460028DED00023EB605BE7B7
:1012100005980EF0F6FB0446D6E76FF0850453E719
:101220002DE9F0430026056885B0B5F828900746FB
:10123000B9F5407F8846029612D10B1D01934B6889
:1012400000930B68D0E9021268680EF064FA044655
:10125000002858D0C8F80460204605B0BDE8F083E7
:1012600040F20133994509D1436900938168D0E97F
:10127000032368680EF060FA0446EDE740F202339B
:10128000994519D10E6816B96FF08004E4E74B68F0
:10129000032BF9D9AB6831460320336002AAFFF76C
:1012A00025FB04460028D7D1696802980EF0C2F9E0
:1012B000044640B330466EE00320A96802AAFFF757
:1012C00077FB6FF441734B44022B04460BD9002883
:1012D000C2D10646A9F20333042B5FD8DFE803F03E
:1012E00015371B283200D8F80060002ECCD0D8F873
:1012F0000430032BC8D9AB6833600028EAD040F231
:1013000007339945A8D10024A6E70298D7E902122D
:101310000EF0B0F9B0E7029808F10C03D8E9021218
:101320000EF0BCF9044658B10023C8F80C3093E71E
:101330000298D7E902120EF0C2F9044600288BD1B8
:101340000024B7E702980EF06AF90446B2E70023DA
:10135000D8F800500393002D96D0D8F80430032B12
:1013600092D9BB68002B8FD0FA68032A8CD91B68EE
:10137000294603202B6003AAFFF7B8FA0446002889
:101380007FF46AAFDDE902010EF0FFF904460028A0
:101390003FF462AF2846FFF7DDFA5DE76FF08504A2
:1013A0005AE72DE9F04F0025D0F8009089B0B9F840
:1013B00028A00DF1180807460E46D2E90021404644
:1013C000059500F03FFBBAF5806F16D1331D0393EE
:1013D0007368029333680193FB680093BB68D9F884
:1013E000042098E803000EF0CDFA0446002856D0F9
:1013F0007560204609B0BDE8F08F40F201439A4580
:101400000ED17B6902933B690193FB680093BB6833
:10141000D9F8042098E803000EF0C9FA0446E8E77A
:10142000AAF2024B1FFA8BF3012B1AD8356815B9B3
:101430006FF08004DDE77368032BF9D9D9F8083021
:10144000294602202B6005AAFFF750FA044600281F
:10145000CFD1BBF1050F5DD8DFE80BF02331393F69
:101460004D570220D9F8081005AAFFF7A1FAAAF2F1
:101470000543022B044603D90028BAD10546E8E704
:101480003568002DD4D07368032BD1D9D9F8083032
:101490002B600028DDD040F207439A45A9D10024F3
:1014A000A7E7D9F80430059898E806000EF0E7F9A8
:1014B00004460028F3D02846FFF74CFA99E7D9F8FC
:1014C0000430059898E806000EF0E5F9F0E7059875
:1014D000D7E902120EF0EBF9A0E7059806F10C032C
:1014E000D6E902120EF0F7F9044608B90024E2E743
:1014F0000023F3607DE70598D7E902120EF022FA87
:10150000044600287FF475AFF0E705980EF057F910
:101510000446D0E76FF085046BE72DE9F04F4FF0FC
:10152000000907688DB0B7F828A00DF12808064615
:101530000D46D2E900214046CDF8249000F082FA11
:10154000BAF5C06F1FD12B1D07936B6806932B68EC
:101550000593F3680493B368039373690293336943
:1015600001937B6A00937A6807F1140398E80300FB
:101570000EF0BDFA0446002868D0C5F80490204655
:101580000DB0BDE8F08F40F201639A4517D12B1DD5
:1015900007936B6806932B680593F3680493B3680D
:1015A000039373690293336901937B6A00937A68AA
:1015B00007F1140398E803000EF0E1FADAE7AAF263
:1015C000026B1FFA8BF3012B20D8D5F80090B9F1EC
:1015D000000F02D16FF08004D1E76B68032BF9D9BB
:1015E000BB6849460520C9F8003009AAFFF77EF913
:1015F00004460028C3D1BBF1090F00F29380DFE855
:101600000BF027345662697A6F3B80510520B96828
:1016100009AAFFF7CDF96FF4C1635344022B0446C6
:1016200003D90028ABD18146E5E7D5F80090B9F1A0
:10163000000FCFD06B68032BCCD9BB68C9F8003042
:101640000028D8D040F20B639A4598D1002496E741
:101650007B68099898E806000EF0E8FA044600282E
:10166000F4D04846FFF776F989E77B68099898E84F
:1016700006000EF0E7FAF1E705F10C030293EB68C0
:1016800009980193AB680093D5E9041205F114039E
:101690000EF006FB044608B90024E2E70023EB60E5
:1016A0006B616CE709980EF0B2FA0446D9E7099825
:1016B0002B1DD5E900120EF0CCFC04460028C5D045
:1016C00000236B605BE70998D6E902120EF0C6FAB8
:1016D000044654E70998D7E9031207F0FFFFF7E73C
:1016E0002B1D01936B68099800932B68D6E90212B1
:1016F00008F04EF8E1E70998D6E9021208F01AF866
:10170000E6E7F36809980193B3680093D5E90212FC
:1017100005F10C030EF0F6FA04460028BCD00023B5
:10172000EB602CE76FF0850429E76FF085007047C8
:101730006FF08500704700232DE9F04706688EB0F2
:10174000B6F828900DF1140807460D469246D2E9E6
:1017500000214046049300F075F9B9F5106F0FD1E0
:101760002B1D03936B6802932B680193FB68009316
:10177000BB68706898E806000EF0D4FC044626E0CA
:1017800040F60113994517D12F68002F74D06B686C
:10179000032B71D9B368394604203B6004AAFFF7D4
:1017A000A5F8044698B97168049808F0B5F804469D
:1017B000002872D100240AE00420B16804AAFFF7CF
:1017C000F7F8044638B140F60A13994557D0204639
:1017D0000EB0BDE8F087A9F60219B9F1080F6BD871
:1017E000DFE809F0050F14281B5F222F4D00296840
:1017F000002941D06B68042B3ED104980EF0B4FA56
:10180000BCE7316B04980EF0B8FAB7E7718D049815
:10181000D7E902230EF08FFBB0E7718D0498D6E96B
:101820000C2308F0DBF8A9E70498D5E900120EF0C4
:10183000D5FAA3E7718D049898E80C000EF084FBAC
:101840009CE72E68C6B16B68032B15D9B96899B1AE
:10185000FA681C2A10D107A80DF0FCFADAF8040087
:1018600007A900F0F2F84246049907A80EF0CCFA56
:10187000059B04463360AAE76FF08004A7E72F6852
:10188000002FF9D06B68032BF6D9B3683B60002CAE
:1018900090D104980EF05AFA04463846FFF75AF8E9
:1018A00095E7FB68718D0193BB680498009398E8F5
:1018B0000C0008F0C5F861E76FF0850487E72DE9B3
:1018C000F0418EB003ACD0F8008006460D461746B6
:1018D000D2E90021204600F0B5F840F20322B8F822
:1018E0002830934203D0A3F50273012B0ED8B168C0
:1018F00011B96FF0800426E0F2681C2AF9D107A81C
:101900000DF0A8FA786807A900F09FF8B8F8283019
:10191000A3F50073092B00F28A80DFE803F02F188B
:1019200024052A414D595E77D6E904122E68002E0F
:10193000DFD06B68032BDCD9234607A807F042FCF5
:101940000446039B336020460EB0BDE8F0812E684C
:10195000002ECED06B68032BCBD9D4E900012246F0
:101960000EF075FCECE794E803000EF091FC0446E1
:10197000E9E794E8030007F0E1FBF8E794E80300E7
:1019800007AA2E680DF0F6FC2B680446002BB0D099
:101990006A681C2AADD8304607A90DF05BFAD2E779
:1019A0002B1D0093D5E9002394E803000DF035FDCD
:1019B000044650B90024C6E72B1D0093D5E9002347
:1019C00094E803000DF050FDF2E700236B60BAE7E6
:1019D00094E803000EF07DFCC9E7002205A811463B
:1019E0002E6800F02FF82B68002B82D06B68032B39
:1019F0007FF67FAF94E8030005AB07AA0DF064FD06
:101A0000044600289FD1059B3360D3E72E68002E43
:101A10003FF46FAF6B68032B7FF66BAF214607A8CF
:101A200008F02EF9044600288DD1039BECE76FF0F7
:101A3000850488E7D1E9000108F068B80FB40020F8
:101A400004B07047C0E900217047886170476FF0AB
:101A500085007047FFF7C2B82DE9F04F15461822F0
:101A600004468DB00E460DEB020000219946DDF8CC
:101A700058809DF864B00DF012FA74B3228904F115
:101A80000C07BBF1000F26D12368CDE90432EEB17B
:101A90002A46314638460DF0DDF9042205A97819A9
:101AA0000DF0D8F9281D042204A938440DF0D2F90C
:101AB00004F1200ABBF1000F2DD00C21504603F099
:101AC00013FB68B14CF2DA23984206D06FF0830022
:101AD0000DB0BDE8F08F4346D7E76FF08600F7E71B
:101AE0000C230B93142309931023029304F12C036A
:101AF0000193189B424600934946179B06A8CDE9DF
:101B00000665CDF828A0089704F02EFB0028D9D14F
:101B1000C4F8048017E00C230B9314230993189B3B
:101B200042460293179B49460193102306A800934F
:101B300004F12C03CDE90665CDF828A0089704F040
:101B400025FB0028BED10020C2E708B503680020AD
:101B50009B689847002818BF6FF0910008BD0020CF
:101B6000704770B504460E460025E368AB4201D8C5
:101B7000002070BD606806FB030023682844DB6911
:101B8000984710B9A3681D44EFE76FF09100F0E7A4
:101B90002DE9F04F036895B005AA04460E46D3F828
:101BA0000C8000F017FC00285FD10AA800F014FF99
:101BB000014600285CD1DDE9057A3C2205A8089D94
:101BC0000DF06DF93146204605AA00F053FD0028BE
:101BD0004BD1834681462368DB8A5B4515D8002DAF
:101BE00035D12946204602AA00F084FC00283CD1C9
:101BF0002946204602AA00F09FFEB0BB204600F016
:101C000084FE78B36FF083002FE0B3451CD05946B3
:101C1000204605AA00F0DEFB38BB059BBB420DD178
:101C20000AA800F0D9FE48B9069B534506D9984545
:101C300028BF98465B1B0693089B9944594620464B
:101C400005AA00F017FD80B90BF1010BC3E743466D
:101C50002A4639462046CDE900A900F0B6F920B958
:101C6000002FCBD1204600F0A0FB15B0BDE8F08FCF
:101C70006FF08B00F9E770B50C461646054648B381
:101C800041B33AB3098A012924D9032922D03C223D
:101C9000E38A022902FB03F3A08AE26807D090429C
:101CA00018D80C200239083300FB013307E0A2F1F9
:101CB0001401C91A81420DD390420BD814339342B8
:101CC00008D81822002128460DF0E9F80020C5E9BF
:101CD000004670BD6FF08600FBE737B5054600F0A3
:101CE000B8FD044658B94FF08071284601AA00F0AB
:101CF000E3FB38B928460199FFF74AFF044620461E
:101D000003B030BD10F18C0F18BF0446F7E700F0A8
:101D1000C3BC30B591B0144601AB6A4600F099FBE4
:101D20000546A8B9049B0C226360039B09A92360A4
:101D3000BDF8143004F12000A3600DF08BF81022E0
:101D40000CA904F12C000DF085F8284611B030BD27
:101D50006FF08B05F9E72DE9F04399B00DF12408F8
:101D600004468946154600213C2240461F46209ED7
:101D70000DF095F84FF6FF73CDE9043325B96FF0F8
:101D8000860019B0BDE8F083AB68B3F1807FF6D26E
:101D9000236849465A8A6B682046013B13445242E5
:101DA00013406B6004AA434600F053FB002840F048
:101DB0009380AB6804999A0306D50C9AD5F804C0B1
:101DC00062457BD10B900D9305914FF6FF73059AF9
:101DD0009A4240F08A8021686B68898A8B42CED80B
:101DE00006A9CDE9028105A90191A96820460091C3
:101DF00004998A1A18BF0122494600F0DAFB00282C
:101E0000BFD1002F79D12046099906AA00F094FD90
:101E100000285ED10C2205F1200111A80DF01AF85E
:101E2000102205F12C0114A80DF014F80599424672
:101E3000204600F01FFC014600284AD1DDE904538A
:101E40009D4228BF1D4620462A4600F0EBFC002894
:101E50003FD14FF6FF72049B93420FD0059A9342F5
:101E60000CD09A4238BF1A462046691C00F0DAFCB2
:101E700078BBDDE904539D4238BF1D4623682046E8
:101E8000DA8A691C00F0CEFC18BB099B002B65D1D7
:101E9000002F63D0204600F088FA00287FF471AF4D
:101EA0004FF6FF73049999423FF46BAF059B99423B
:101EB0003FF467AF2046FFF76BFE62E70D9B42469B
:101EC00043F0807320460D9300F0D4FB00283FF4CC
:101ED0007CAF6FF0830054E710F18C0F7FF451AFAB
:101EE000AB68DB037FF54DAF6FE72046099906AA83
:101EF00000F000FB002884D0EBE723685B8A5A1EC1
:101F00003242E6D107F1FF3999445B4209EA0309FD
:101F10000B9B9E42DDD84A4631460C9800F050FD9E
:101F20000028D6D1219B4246CDE900932046334676
:101F300006A900F0C0F80028CBD10B9B3E449E427E
:101F40000999204688BF0B96069E00F029FA314673
:101F50000690099A204600F08AFB54E7204600F0DC
:101F6000D4FC002896D0B4E713B5002301AA044698
:101F700000F06FFA28B920460199FFF709FE02B078
:101F800010BD6FF08B00FAE770B592B015461C4695
:101F900002AA03AB064600F05CFA98B92A4621462D
:101FA000059800F00DFD58B9169B22460093304667
:101FB0002B4603A900F05EF8002818BF6FF08300DD
:101FC00012B070BD6FF08B00FAE72DE9F04786B0D4
:101FD0001646DDE90E9703AA054688469A4600F0A4
:101FE00089FA044698B9059B41463344284605932F
:101FF00000F0D6F906467FB101464A462846CDE9AB
:1020000000A7039B00F0E0FB28B16FF0830420469B
:1020100006B0BDE8F0870127DDE903324A450AD260
:10202000A9EB0201CDE900212846314600F0CCFBA6
:102030000028EAD1012742462846039900F017FB01
:102040004146284603AA039600F076FC044628B1D0
:1020500042463146284600F00AFBD8E7B8F1000FA7
:10206000D5D0002FD3D06B683146DB6828689847FD
:102070000446CCE72DE9FF410D461646096801AA42
:1020800004461F46DDF8288000F034FA70B9019943
:102090004B1C0BD062686B680A9755684246AC4689
:1020A0002068334404B0BDE8F04160476FF083001E
:1020B00004B0BDE8F0812DE9F3471546DDE90AA932
:1020C0000F4698461168044600F06AF96B687A6812
:1020D0009844A8EB0203CDE90023064601463B687D
:1020E000204600F071FB20BB6368CDF800A0D3F858
:1020F00008A04A46434631462068D047C8B9EB6835
:102100006A68B9681A4423682046DB685B1A9B1A20
:10211000CDE9002331463B6800F056FB48B92B68F7
:102120003BB1314663682068DB6802B0BDE8F04728
:10213000184702B0BDE8F08713B50C2404FB01F387
:10214000416800948C68083341690068A04702B078
:1021500010BD436810B5416904461B690068984783
:1021600050B923681A8A022A06D96268A1681846FB
:10217000BDE810401269104710BD008A022814BF44
:1021800003380020704708B5FFF7F7FF0C233C2207
:1021900000FB033302FB0130083008BD2DE9F04F8E
:1021A000002405460F46904626464FF00C0993B092
:1021B000D5F800A05046FFF7E0FF013086420ED36D
:1021C00000264FF03C09D5F800A0BAF816309E4220
:1021D0001DD3002088F8004013B0BDE8F08F09FB44
:1021E00006F36A68CDF80090D2F804B0394650463C
:1021F000083303AAD8470028EED103AB13F8012B0C
:1022000001300C2884EA0204F8D10136D0E76B686B
:1022100031465046D3F804B0FFF7B5FF39460346C0
:10222000CDF80090504603AAD8470028D4D103AB7C
:1022300013F8012B01303C2884EA0204F8D101365E
:10224000C1E737B5837B01685A1CD2B28273097E1D
:1022500004469142416904BF02338373012900F1AE
:102260000D020DD8FFF79AFF40B90822636800926B
:102270009D6861690346A2182068A84703B030BD75
:102280006FF08600FAE713B50C4611462279034633
:10229000012A09D1036862791B7E9A4214BF00208B
:1022A0006FF0830002B010BD022A04D11B68A2792E
:1022B0001B7E9A4202D16FF08300F3E701290DD80B
:1022C0000DF10702FFF76AFF0028EBD162799DF854
:1022D00007309A4218BF6FF09100E3E76FF0860075
:1022E000E0E70822F0B5436887B000925C680023FD
:1022F0006A44054619460068A0470246002832D0C5
:1023000000264FF0FF3408226B6800925F680121BD
:102310000023286804AAB84700283AD10122284699
:1023200004A9FFF7B0FF0346002832D1002E35D0B4
:102330002A689DF81610127E9DF80E00B2FA82F2FD
:102340005209914218D1002914BF022301231B1AFC
:1023500018BF01231C462C61B4FA84F400206409E0
:102360006C6107B0F0BD284602A9FFF78CFF044658
:102370000028C5D10126C6E7904205D1002814BF28
:10238000022201229142E5D188422CBF0023012381
:10239000E0E7002EDFD16FF08300E2E70124DAE707
:1023A00009B9406970478068704710B50446FFF767
:1023B00048FF70B963686169DB682068984740B975
:1023C000D4E904232046C4E90432BDE81040FFF7F5
:1023D000C0BE10BD2DE9F3410668054630461446DF
:1023E000FFF7D1FE3C216A680091034657683046EA
:1023F00022462969B847064640B92868FFF7BDFE5E
:1024000023680130834205D36FF09706304602B04F
:10241000BDE8F08104F1140000F0DEFA0028F5D1E7
:102420002D68E768AB8A9F42EED8A3689F42EBD342
:10243000D4E900382BB92846E98AFFF7A4FE4045C5
:10244000E2D83A464146E86800F0BAFA0028DDD002
:10245000DAE72DE9F0430746884691461C460025F9
:1024600091B03B68DB8AAB4202D86FF08B061AE072
:102470002946384601AAFFF7ADFFD0B90C224146E4
:1024800006A810F047FA064688B9C9F8005054B1BA
:1024900001AD0FCD0FC40FCD0FC40FCD0FC495E804
:1024A000070084E80700304611B0BDE8F08301352D
:1024B000D7E76FF08306F6E7F0B505460E461746F8
:1024C000002491B02B68DB8AA34202D86FF08B0006
:1024D00009E02146284601AAFFF77CFF38B9059B91
:1024E0001E4202D03C6011B0F0BD0134EAE76FF04B
:1024F0008300F8E773B506460C2000FB01F3716812
:1025000000904C683068316908331546A04704468E
:1025100030B9336829681A8A914204D36FF097045E
:10252000204602B070BDD868D5E9011200F048FA23
:1025300004460028F2D12B68012B03D83068C18AE9
:10254000FFF721FE6B688342EAD0E7E7F7B50C2678
:1025500006FB01F3416800964F68083301690546A0
:1025600000681446B847034630B92B6821681A8AB8
:10257000914204D36FF09703184603B0F0BDD868BA
:10258000D4E9011200F01CFA03460028F2D12268B7
:10259000012A0AD82A681046FFF7EFFDD18A3C22AB
:1025A000514300FB06660831881962688242E3D015
:1025B000E0E72DE9F04F05468B4691469846002707
:1025C00091B0DDE91C6A2868FFF7D7FD013087422A
:1025D00002D36FF08D0420E0524639462846FFF7BB
:1025E00089FF044680BBDAF8082090452AD82B687A
:1025F0005946DB6837609B1A73600C22C6F80C8062
:1026000006F114000CF026FC1A9BB4603361DAF872
:102610000830A3EB0803CAF8083000262B68DB8AD1
:102620009E4205D23146284601AAFFF7D3FE70B17B
:102630004FF6FF766FF08D0420461B9B1E6011B095
:10264000BDE8F08F0137BEE76FF08304E5E706A829
:1026500000F0C2F948B1B9F1000F04D0002C18BF46
:102660006FF08D04E8E74FF001090136D6E702B1BB
:1026700081607047F7B50668044630461546FFF797
:1026800082FD3C21626800910346976830462A46E5
:102690006169B84703B0F0BDF0B593B00546FFF7E8
:1026A00020FE002861D16E696B6831461B6928687D
:1026B00098470446002878D1B6FA86F16B682868F6
:1026C0001B6949099847044600286ED12E680127E6
:1026D000337EB3FA83F35B09AB73338AC5E904072E
:1026E000022B14BF02230123AB6002232B73F18A58
:1026F0003046FFF748FDF36821461B1A01906A46F1
:10270000284602930097FFF717FD044600284CD196
:1027100006462B680190DB6802932B681846FFF78A
:102720002CFDB04223D8002C4BD12B681846FFF764
:1027300024FDA04228D83C22002103A80CF0AFFBC6
:1027400000242B68DB8AA34232D82846FFF779FDA4
:1027500048BB6B686969DB6828689847044620BBFA
:10276000D5E90423C5E904321FE000269CE7198A55
:102770006A68022914BF03210021184631441269F6
:10278000904701360443C8E71B8A6A46022B14BFF0
:102790000323002323440134214628460093FFF7F6
:1027A000CBFC0028C1D06FF08304204613B0F0BDED
:1027B0002146284603AAFFF75DFF0028F3D1013424
:1027C000BFE76FF09104F0E72DE9F04F044688462B
:1027D00016469946C3B0DDE94CA51DB9284643B05D
:1027E000BDE8F08FB5F5807F2F4628BF4FF4807786
:1027F00063680097D3F804B049465346206802AA9C
:10280000D8470028EBD163680097D3F808B0414659
:102810003346206802AAD8470028E0D13E44BA4493
:10282000ED1BDAE7F7B50768044638461646FFF7AA
:10283000AAFC314605463846FFF7A5FC401BCDE90A
:1028400000502A46204623696169FFF7BDFF03B0A7
:10285000F0BD2DE9F041436805461B68006886B06D
:102860009847044628B92846FFF73BFD28B16FF08A
:102870008304204606B0BDE8F08108266B6805F1A8
:1028800008070096D3F804803A4623462969286849
:10289000C0470028EBD1394628462A69FFF7F3FCE8
:1028A0000028E4D12846FFF754FC04460028DED176
:1028B0002B7B012B24D1014603AA2846FFF746FEB5
:1028C00004460028D5D1059B2A68C3F1FF23D268AE
:1028D00003F57F03F8331344CDE9006332462846FD
:1028E0002B696969FFF770FF04460028C1D16B7B33
:1028F0002846AB7302232B73FFF757FD0446B8E756
:10290000022B18BF6FF08304B3E710B586B0002127
:1029100003AA0446FFF7EEFD60B92068049A059B00
:10292000D118C36820465B1ACDE90023D4E90431ED
:10293000FFF74AFF06B010BDF0B504460D4687B05C
:1029400009B94369136029462046FFF7F5FB0146A4
:10295000E0B9D4E904769DB90C2205FB02220021DE
:10296000206802F10805FFF70EFC401BCDE900507E
:102970003B462A4631462046FFF726FF07B0F0BD0A
:10298000204603AAFFF7B6FD014610B16FF08300A1
:10299000F4E7204603AA0396FFF7CEFB0028F5D103
:1029A000012DD9D00C2314226B430C3B01933146EB
:1029B0003B4620460092FFF707FF0028CCD0DDE71A
:1029C000814206D8401A90422CBF00206FF086004A
:1029D00070476FF08600704700F10C03984202D1F7
:1029E0006FF08B00704710F8012B002AF6D0002002
:1029F0007047F0B503680446A3F2F233A7B0032B87
:102A000000F22081DFE803F0025AA4A70023C26984
:102A1000169300F11C03A2B10421E26A04F12C0315
:102A2000DAB104222369042B19D0012070E00029B7
:102A3000F3D053F8040D0A4601390028F7D01146A7
:102A4000EBE70321F5E7002AECD053F8045D1046CC
:102A5000013A002DF7D00246E4E70322F5E7206AA9
:102A60000428E2D80129E0D1012ADED100216068E2
:102A700006AA05F00FFD0428D7D1A3680698002BFD
:102A800015DB00220699A06803F069FC0028CCD170
:102A9000216A069816AA03F017FC0028C5D1014642
:102AA000236A606816AA05F0FFFC002030E006A942
:102AB00003F06AFC0028E4D0022029E0C26900F19A
:102AC0001C03002A30D00422E16A04F12C030029FF
:102AD00036D004212369042BA7D1012AA5D10029CE
:102AE000A3D1606816AA05F0D5FC04289DD1A3687F
:102AF0001698002B26DB00221699A06803F02FFC05
:102B0000002892D1169803F017FC003818BF012056
:102B100027B0F0BD002AD7D053F8040D1146013A72
:102B20000028F7D00A46CFE70322F5E70029D1D0E5
:102B300053F8045D08460139002DF7D00146C9E776
:102B40000321F5E716A903F01FFC0028D3D0B3E753
:102B500002F036FCA9E700253C22294607A8CDE96A
:102B60000255CDE9045506950CF099F93C22294609
:102B700017A816950CF093F9E269019504F11C036E
:102B800012B30426E26A04F12C034AB30425731E2F
:102B9000012B3FF64AAF012D3FF647AF042300213A
:102BA00060680DEB030205F075FC04281AD06FF085
:102BB0008000ADE7002EE5D053F8041D3246013EFB
:102BC0000029F7D01646DDE70326F5E7002DDED015
:102BD00053F8041D2A46013D0029F7D01546D6E7D3
:102BE0000325F5E7022E16D16669402E27D806AFD9
:102BF00033463A460121606805F04CFC8642D6D146
:102C0000CDE9027602A945B92A46019803F0E1FA16
:102C1000054628467CE70021F5E7236A402BC6D805
:102C200016AACDE90423019804AA03F0D2FADDE93B
:102C3000042305460021606805F036FCE9E76FF0E3
:102C4000890065E76FF0850062E708B503F03AFB9D
:102C5000002814BF6FF09200002008BD4B1B00003D
:102C6000950F0000510F00005F1B0000631B000068
:102C70000100000002000000040000005B45525209
:102C80005D5B43727970746F5D20556E7375707003
:102C90006F727465642072657175657374210D0AB5
:102CA000004D62656420544C5320332E362E340080
:102CB0004372656174696E6720616E20656D707422
:102CC000792049545320666C617368206C61796F78
:102CD00075742E0D0A004372656174696E67206118
:102CE0006E20656D70747920505320666C61736836
:102CF000206C61796F75742E0D0A000001680E4A10
:102D00000346914215D1C169A2F11022A2F1EF123E
:102D100091420ED18268012A0BD8C26812B10169B2
:102D20008A4206D0586928B19B691B1A58425841FB
:102D300070470120704700BF55AA00FF0D4B70B5CA
:102D40009E68A6B13046FFF7D9FF044678B9F3680C
:102D50006BB935690DB9204670BD2846FFF7CEFF27
:102D600028B9EB68B34202D12E462D69F2E701245F
:102D7000F1E700BF80A800202DE9F041394E34680A
:102D8000F368D4B1B468C4B1002861D000295FD021
:102D900001FB00F5B5FBF0F0884259D1291D57D849
:102DA000AA070DD025F0030204321C4603E0616837
:102DB00091424FD2A469002CF9D12046BDE8F081A0
:102DC0002A46F2E7891A232904F12007D4E9050CE1
:102DD0001AD80123A360A0B1C0F818C0A36903B139
:102DE00058610023C4E905333369DB0702D5FFF7D7
:102DF000A5FFA0BB2A46002138463C460CF04FF800
:102E0000DBE7C6F80CC0E9E702F1200804EB080391
:102E10002039C3E9011E2169DFF84CE0DC6019614B
:102E200044F808E0AEF1102EAEF1EF1EC3F81CE03E
:102E300001B1CB60C3E9050C40B18361996901B16F
:102E40004B6101212361C4E90121CAE7F360F5E781
:102E50000024B2E7D4F808E0BEF1000FB2D00120A0
:102E60000BF034FF80A8002055AA00FFF8B50546F6
:102E700000283AD0364E3368002B36D0B268002A8C
:102E800033D0834203D872681344984202D301209E
:102E90000BF01CFFA0F120042046FFF72FFF0028B5
:102EA000F5D155F8183C012BF1D145F8180C55E92E
:102EB0000570DFB1BB68CBB955F81C2C7B6820329C
:102EC00013447B60386100B1C76020220021204696
:102ED0000BF0E5FF386908B183682BB333699B07B2
:102EE00003D5FFF72BFF0028D1D1F8BD40B383688D
:102EF00033BB426863681344203363600369D4E9D9
:102F00000521236192B9B9B9426981696261A16100
:102F1000A2B19461A26902B1546103B1DC602022C4
:102F200000210BF0BCFFD9E73C46E2E79161A169C3
:102F30000029E9D04A61E7E7F160F8E7F460E9E7E2
:102F4000F36845F8083C03B15C61F460C6E700BF74
:102F500080A8002038B50D461422002104461248EE
:102F60000BF09DFF1149124805F06CFB232D1AD977
:102F700014F003031FBF043DED18C3F10403E4186C
:102F80002A46002120460BF08AFF074B094AC3E975
:102F900000459C602260A2F11022203DA2F1EF12B8
:102FA0006560E261DC6038BD80A800206D2E000005
:102FB000792D000055AA00FF00000000000000006D
:102FC00010B50F4C4FF4CC72204600210BF067FF78
:102FD0004FF48073A36108A3D3E90023C4E9042359
:102FE0000123A4F8903184F82830BDE8104000F0A7
:102FF000D9BA00BFAFF3008000BD40DFE143E14E2E
:10300000A814002000000000002230B54C4C89B00C
:1030100002AD04904FF4C87301200021CDE90045B2
:10302000CDE906220394ADF814200BF085FC10B115
:1030300001238DF81430049B0022009302204FF4EA
:10304000C873002101950BF077FC10B101238DF8B6
:1030500015304FF4807238A1D1E90001039BC3E918
:1030600004019A61049BC3E904019A61002006A946
:1030700000F020FE002858D12946012000F01AFE59
:10308000002852D1022007A900F014FE00284CD1DC
:10309000079A029B9A429DF8143018BF0790012BA3
:1030A00003D0002003A900F05CFD9DF81530012B32
:1030B00003D0012003A900F054FD039B049993F869
:1030C0002830012B1CBF01238DF8143091F82830D3
:1030D000012B1CBF01238DF8153040F20113BDF800
:1030E00014209A4225D09DF81430012B07D14FF4BB
:1030F000C8721348A4F890310BF0ACFE07E09DF8BD
:103100001530022B13D04FF48073A4F8903194F84B
:103110009101002101300BF05FFC10B110F18C0F18
:1031200003D1074800F0B6FB002009B030BD0123F1
:10313000DDE76FF08300F8E700BD40DFE143E14EDB
:10314000A81400206FF47A72F0B5474B044618605B
:1031500003688DB01344042B08D8DFE803F003277D
:103160004867770003698668082B02D06FF08005F6
:1031700059E08569042DF9D10021406808AA05F0BD
:1031800089F90828F2D12B460221606806AA05F0C9
:1031900081F90428EAD1069B3046019363690093C4
:1031A000DDE9082300F08CFC05463CE00369082BB0
:1031B000DCD14569042DD9D10021406808AA05F069
:1031C00069F90828D2D12B460121606805AA05F0CB
:1031D00061F90428CAD106AB0293236A0193059BC7
:1031E0000093A068DDE9082300F080FCDCE70369B8
:1031F000082BBBD1076A0C2FB8D10021406806AA62
:1032000005F048F90828B1D1DDE9062308AE00969B
:10321000A06800F07FFC054628B901463B463246CF
:10322000606805F041F928460DB0F0BD0369082B30
:103230009CD10021406808AA05F02CF9082895D1F6
:10324000DDE90823A06800F075FCADE7056A042DF0
:103250008CD100F082FC2B4608900021606808AAFF
:1032600005F022F90025DEE7401D002038B5074BA8
:1032700002461D680C460B466868012105F00AF9F4
:10328000844214BF6FF08000002038BD401D002034
:103290000B46044910B40C6802460021606810BC5B
:1032A00005F002B9401D002008B5074907480BF09A
:1032B00080FE00F021F830B100F051FC18B9BDE8F3
:1032C000084000F019B808BD00025005003D00009C
:1032D00038B5084D2B4600F0FDF9044618B9BDE895
:1032E000384000F089BA002128680BF075FB2046B1
:1032F00038BD00BF441D002010B5044C2046FFF728
:1033000083FE034B383C5C6010BD00BF980C00206E
:10331000441D00202DE9F347DFF864A01F46534603
:1033200081468846164600F02BFA044608BB154D28
:10333000DAF80000294601AAC5E90498AE6100F058
:1033400055FC044678B9AE6ABE4216D30A9BF61BFA
:103350009E4228BF1E4605F1380031463844FFF72B
:1033600097FF0B9B1E6040F64802002105480BF0BA
:1033700096FD204602B0BDE8F0876FF08604F2E7C4
:10338000441D0020600C00202DE9F04F85B0DDF8D1
:1033900038A00746BAF5006F0E4690469B4673D894
:1033A000DFF8EC904B4600F0EBF9044600283FD1E3
:1033B000384DD9F80000294603AAC5E90476C5F8B6
:1033C000188000F013FC044600284CD12B6BDB075F
:1033D0004FD4C5E90BAB4FF0010B5B46D9F8005059
:1033E00051462D480193FFF741FF0446C0BB019BA6
:1033F0002749184600F03CF9044688BB2549D9F80E
:103400000000C1F828A000F023FC044628BB424677
:1034100038463146FFF75CFF044668B340F6480281
:1034200000211C480BF03BFD204605B0BDE8F08FA5
:1034300010F18C0FF8D1174C40F6480200212046BD
:103440000BF02DFDC4E90BAB4FF0000B02235D46E2
:10345000C4E90476C4F81880C2E70DB1C9F8005079
:10346000BBF1000FDAD0424638463146FFF730FF55
:10347000D4E76FF08404F6E7002DCFD0214628462C
:103480000BF0AAFA0446C9E76FF08604CCE700BF48
:10349000441D0020600C0020980C00202DE9F3470B
:1034A000DFF84CA01E46534681468846174600F07A
:1034B00067F90446B8B90F4DDAF80000294601AAA9
:1034C000C5E90498AF6100F091FB044628B9AB6AE6
:1034D0007360EB6A33602B6BB36040F648020021E7
:1034E00004480BF0DCFC204602B0BDE8F08700BFCA
:1034F000441D0020600C00202DE9F7431A4F804640
:103500003B460E46914600F03BF9044620BB174D62
:103510003868294601AAC5E90486C5F8189000F064
:1035200065FB044690B92B6BDB0719D44A4640462D
:10353000314600F03BF9044640B900F05DF904461D
:1035400020B9214638680BF047FA044640F6480295
:10355000002106480BF0A3FC204603B0BDE8F08331
:103560006FF08404F2E700BF441D0020600C0020CF
:10357000F0B500250A4CD4E910768E4208BF874288
:1035800005D1A66C964202D100201D60F0BD013528
:103590000B2D04F12004EED16FF08B00F6E700BF95
:1035A000A8140020002030B5DFB0029000F08DFBA1
:1035B0000246002836D102A900F07CFB024688BBF7
:1035C0002A4C029D204600F06DF9024650BB4FF494
:1035D000B47204F1280103A85D950BF03BFC4FF495
:1035E000B672204603A900F009FA0246D0B994F851
:1035F00091514FF4C872009023460021681C0BF0D3
:103600007DF9024670B994F89031039003A9012026
:1036100084F8913184F89051029C00F04BFB68B122
:103620006FF0830210465FB030BD012000F04DFB0B
:1036300002460028F6D1039B01330393039B9C426F
:10364000F3D8022003A900F035FB0028E8D1039B42
:103650009C4201D80022E5E7022000F036FB02463A
:103660000028DFD1039B01330393F0E7A814002067
:1036700070B50D4648B300231C46154AD2E9101612
:10368000314304F1010106D00B2919D01C46203228
:1036900023460C46F2E70B2900F1FF300FD0203211
:1036A0000028F5D12346DC1C204600210BF094F9BC
:1036B00010B110F18C0F01D100202C6070BD0A23D5
:1036C0000028F0D06FF08D00F8E76FF08600F5E786
:1036D000A81400202DE9F0471E46002381468846A5
:1036E00017468AB0244D02AC01930FCD0FC495E864
:1036F0000F0084E80F003A464846414601ABFFF709
:1037000037FF1E4D824668B9019C202205EB441408
:103710003034214602A80BF09DFB20225146204662
:103720000BF0BDFB33687168DC1E05EB431343E906
:10373000089805EB44131C463034102220469F6441
:103740000BF088FBFFF72EFF064688B1DDE9063255
:10375000134308D0019B202205EB431502A905F174
:1037600030000BF077FB2022002120460BF097FB66
:1037700030460AB0BDE8F087E03C0000A814002005
:1037800037B51D4601ABFFF7F3FE044648B9019B70
:103790000549DA1C2A606868102201EB43110BF01E
:1037A00059FB204603B030BDD8140020002330B5AB
:1037B0008BB0019301ABFFF7DBFE0446B0B9019B70
:1037C0000C4D202205EB4315294602A80BF042FBC5
:1037D0002146202228460BF062FBFFF7E3FE044659
:1037E00020B12022284602A90BF034FB20460BB062
:1037F00030BD00BFD8140020034B002193F8910185
:1038000001300BF0E9B800BFA814002030B589B032
:1038100004460D461822002102A80BF040FB0023AD
:103820004FF440710093194B6846CDE903134FF4F0
:103830001053ADF8043080234FF00821ADF8063066
:103840000AF0E8FF00BB40F201116846104A0AF096
:103850009BFFA0B90C232A4640F2012168460AF0DA
:10386000FDFF60B92246694601A80BF01FF830B988
:1038700068460AF0ADFF38B120680AF0CBFE684612
:103880000AF0A6FF6FF0830009B030BD00025005BA
:1038900002C0FF7F00F11C010C2201480BF0DABAD4
:1038A0004C1D00201FB50822184904460DEB0200EC
:1038B0000BF0D0FA042216490DEB02000BF0CAFA05
:1038C000029B039A013342F10002CDE90232134315
:1038D00014D008220D480DEB02010BF0BBFA0422B4
:1038E0000B480DEB02010BF0B5FA0C22074904F16D
:1038F0001C000BF0AFFA002004B010BD019B013397
:103900000193002BE5D16FF08300F5E74C1D0020FB
:10391000541D00202DE9F0438DB00E4609A9044640
:1039200090469946159F179D00F046F909A908A8E9
:10393000FFF76CFF18BB169BCDE90068CDE9047357
:10394000149B1049CDE9029308980C23069504F1C5
:103950001C020AF07DFE28B108980AF05BFE6FF0A9
:1039600083000CE029681022103929602046394470
:103970000BF070FA08980AF04DFE0028EFD10DB058
:10398000BDE8F083000250052DE9F04104461D46D4
:103990008CB0129E0F4609A9904600F00DF9214601
:1039A0001022A8190BF056FA09A908A8FFF72EFF54
:1039B000B8B9159B10360693149BCDE902560593B2
:1039C000139BCDE9007804930B490C23089804F16C
:1039D0001C020AF08BFE38B108980AF01BFE6FF04B
:1039E00094000CB0BDE8F08108980AF013FE00289E
:1039F00018BF6FF08300F4E70002500570B58EB079
:103A00000D460BA90446164600F0D6F80BA90AA8E5
:103A1000FFF7FCFEF0B909AB06931023CDE90200D5
:103A2000CDE90443CDE900560C230B490A9804F173
:103A30001C020AF00DFE18B9DDE90930102B05D083
:103A40000A980AF0E7FD6FF0830003E00AF0E2FD58
:103A50000028F8D10EB070BD0002500570B58EB0D0
:103A60000D460BA90446164600F0A6F80BA90AA8B5
:103A7000FFF7CCFEB8B909ABCDE9050310230490DC
:103A8000CDE90243CDE900560C230B490A9804F115
:103A90001C020AF02BFE099B18430A9805D00AF075
:103AA000B9FD6FF094000EB070BD0AF0B3FD0028B0
:103AB00018BF6FF08300F6E700025005FFF7F4BB74
:103AC00030B4194604461046DDE9022350EA0105E8
:103AD00005D0072B07D8224630BCFFF755BC6FF046
:103AE000860030BC70476FF08500FAE770B4194665
:103AF00004461046DDE9033250EA0106059D05D073
:103B0000CDE90325224670BCFFF704BC6FF08600A8
:103B100070BC7047194610B40446104650EA0102C2
:103B2000019B03D0224610BCFFF7B8BC6FF08600A3
:103B300010BC7047194652EA010310B504461046FE
:103B400008D02246FFF7D8FC10F1950F08BF6FF0A0
:103B5000830010BD6FF08600FBE700207047FFF781
:103B60002FBA70B551F82060DCB0CB684FF4B47256
:103B700005460C4601A806F128015B930BF06AF993
:103B80004FF4B672304601A9FFF768FF80B1236990
:103B900083B14FF4B672304601A95B93FFF75EFF25
:103BA00000280CBF032301232C4423725CB070BD9A
:103BB0000223F9E70123F7E71FB5D0E904230C46F8
:103BC000CDE90223042283690DEB02012046019313
:103BD0000BF040F90822201D0DEB02010BF03AF921
:103BE00004B010BD0F30000901307047F0B5164623
:103BF000002289B005AB019301F11C030D4600932F
:103C0000114640F61C0307460AF096FED8B9059CFB
:103C100006970C3C2046FFF7E5FF07AB30600393A7
:103C20004FF4026305F12807CDE9017304223B46F6
:103C30002846009406A9FFF7A7FE30B9079B9C42CF
:103C400018BF6FF0830009B0F0BD6FF08300FAE792
:103C50002DE9F04186B00490064608460D468F6A6D
:103C6000FFF720FE0446B0B905AA03924FF40262A2
:103C700007F1100805F12803CDE901322846042296
:103C8000CDF8008004A9FFF745FE10B9059B9845C3
:103C900005D06FF08304204606B0BDE8F0812146D0
:103CA0000094304605F11C0307F11C020AF026FEC1
:103CB0000446F0E70A4608B504210AF0BBFE0028D6
:103CC00014BF6FF08300002008BD08B50AF09AFE0B
:103CD000002814BF6FF08300002008BD0000000022
:103CE00000000000000000000000000000000000D4
:103CF00000000000000000000000000000000000C4
:103D00005B494E465D5B50535D20456E6372797032
:103D100074696F6E20616C673A20307825780D0ADF
:103D20000000000000000000000000000000000093
:103D30000000000000000000000000000000000083
:103D4000E04500000100000001830000D98200006E
:103D500018430100A0A800204E000000E04201002E
:103D6000601D00200E000000E0420100600C0020F9
:103D700000000000981D0020C2220000600C0020FE
:103D800040040000400C00200800000003F056BD75
:103D900008B572B61E4A1F4B9A601F4B83F3098801
:103DA0001E4B83F30A8883F30B881D4B16A1D1E9C0
:103DB0000001C3E9000100F00FF91A4B1A498B42C8
:103DC00012D30020194B1A498B4218D304F0ACFAD5
:103DD000186850F82240586840F82240013298682C
:103DE0008242F5D30C33EAE70022F8E71C6844F876
:103DF000220001325C68A242F8D30833E4E70022D3
:103E0000F8E700BFAFF30080A5EDF5FEA5EDF5FEE8
:103E10000000000000ED00E0380C0020400400200D
:103E2000380C0020503D0000743D0000743D00003F
:103E30008C3D0000EFF30880EFF309812DE9F00FCE
:103E40006B46724600F060F908B0FFF79FFFFEE78F
:103E500008B5FFF7EFFF08B5FFF7ECFF08B5FFF770
:103E6000E9FF08B5FFF7E6FF08B5FFF7E3FF08B580
:103E7000FFF7E0FF08B5FFF7DDFF08B5FFF7DAFF52
:103E800008B5FFF7D7FF08B5FFF7D4FF08B5FFF770
:103E9000D1FF08B5FFF7CEFF08B5FFF7CBFF08B598
:103EA000FFF7C8FF08B5FFF7C5FF08B5FFF7C2FF6A
:103EB00008B5FFF7BFFF08B5FFF7BCFF08B5FFF770
:103EC000B9FF08B5FFF7B6FF08B5FFF7B3FF08B5B0
:103ED000FFF7B0FF08B5FFF7ADFF08B5FFF7AAFF82
:103EE00008B5FFF7A7FF08B5FFF7A4FF08B5FFF770
:103EF000A1FF08B5FFF79EFF08B5FFF79BFF08B5C8
:103F0000FFF798FF08B5FFF795FF08B5FFF792FF99
:103F100008B5FFF78FFF08B5FFF78CFF08B5FFF76F
:103F200089FF08B5FFF786FF08B5FFF783FF08B5DF
:103F3000FFF780FF08B5FFF77DFF08B5FFF77AFFB1
:103F400008B5FFF777FF08B5FFF774FF08B5FFF76F
:103F500071FF08B5FFF76EFF08B5FFF76BFF08B5F7
:103F6000FFF768FF08B5FFF765FF08B5FFF762FFC9
:103F700008B5FFF75FFF08B5FFF75CFF08B5FFF76F
:103F800059FF0000064BD3F840231C2A05D1D3F873
:103F90004403431E5842584170470020704700BFF9
:103FA00000C0FF0003689A070CD50368DB070DD536
:103FB0000922074BC3F80C250F22C3F80425012260
:103FC0001A60FEE7034B0360EF3B0360704700BFDE
:103FD00000801050F000FA5008B501233C4A3D48DB
:103FE000C2F800383C4AD2F840231C2A04BF3B4A9E
:103FF000C2F80C34FFF7D6FF0830FFF7D3FF0830C4
:10400000FFF7D0FF0830FFF7CDFF00F5F470FFF7A2
:10401000C9FF334AD2F88C3043F44063C2F88C3085
:104020000022D30003F57F0303F54043D3F80014C7
:1040300001310AD0D3F8001439B1D3F80014013299
:10404000D3F80434402A0B60EBD1214BD3F8402441
:10405000002A38D0FFF796FF48B11F4BD3F834231E
:10406000204B9A429EBF1A4B1F4AC3F84026FFF7C7
:1040700089FF18B11D4B1E4AC3F8AC27FFF782FF1A
:1040800048B13422124BC3F82426D3F83C2622F43C
:104090000022C3F83C26174B1149D3F80026D2075B
:1040A00044BF6FF00102C3F800260323124AC2F88E
:1040B0001835D1F88C3043F44063C1F88C300023BC
:1040C000C2F8A03508BDC822C3F84024C2E700BF2B
:1040D0000000125000C50D5000C0FF000030055018
:1040E00000ED00E0001D0A1840E0A91E00A00850E5
:1040F00078000A0400E0105000B004507C2201490E
:104100000AF0A8BEBCAF002038B51D463A4B3B4C68
:104110005B68C3F308032360EFF30383636553060F
:10412000C4E90120E1603BD502F00C020C2A08BF73
:10413000084601462061202231480AF08BFE25B155
:10414000202229462F480AF085FE2B4B9A6AA26549
:10415000D96AE165986B206602F400406066586B8E
:10416000A06602F08000E0669A62D962D3F8E4208B
:104170002267D3F8E810616702F04001A167C3F835
:10418000E42000F065F80E211F4801F007FC2268CA
:10419000D31E042B25D8DFE803F00F181B1E2100C7
:1041A000EFF39483990704D5130702D5EFF38980C1
:1041B000BFE7EFF38880BCE70C21144801F0EEFB69
:1041C000EFF38883EFF3898338BD12211048F5E7B8
:1041D0000B211048F2E70D210F48EFE70E210F48A1
:1041E000ECE70F2A95BF142125210D480D4888BF03
:1041F000103A02F04DF9E3E700ED00E0BCAF00201B
:10420000D0AF0020F0AF0020347F0000427F0000DC
:104210004E7F0000607F00006B7F0000787F000011
:10422000867F00009A7F000037B5084C6369984785
:1042300048B9E56AA847C307FCD4236A019303B0D1
:10424000BDE830401847002003B030BDC07F0000FB
:1042500010B50B4C0020A368984780B90220236951
:10426000984760B94FF4E1310120A46AA04730B902
:1042700001211520A04710B90122024B1A7010BD70
:10428000C07F000094BC002010B5064C00202369BC
:10429000984708B1043004D1E368984708B9024B45
:1042A000187010BDC07F000094BC0020064B82B087
:1042B0001868002382B262F30F03000C60F31F43FF
:1042C000184602B0704700BF08800000014BD86D4F
:1042D000704700BFA4A80020014B186E704700BFB4
:1042E000A4A80020F0B5C2B2012A04460B4685B04E
:1042F0000AD0A2F11501012900F2D280002B00F0B2
:10430000BD80002005B0F0BD684D01AE95E8070006
:1043100086E807004DF6C02293427CD028D8B3F53A
:10432000615F7BD011D8B3F5965F79D008D8B3F52B
:10433000966F77D0B3F5166F77D06FF00700E1E78F
:10434000B3F5165FF9D15A4B33E047F61222934288
:104350006ED007D8B3F5964F6DD0B3F5E14FECD1E1
:10436000544B26E0B3F5164FE7D14FF41D0320E080
:10437000514A934261D011D8B3F5E13F60D007D8DC
:10438000B3F5614F5FD0B3F5963FD6D14B4B10E0FC
:10439000B3F5613FD1D14FF06C730AE0B3F5612FF3
:1043A00054D0474A934254D0B3F5E12FC5D14FF0D2
:1043B000E86314F4E06F55D114F4404103D0B1F533
:1043C000804F52D110213F4F04F44052B2F5805F2C
:1043D000B7F8940040D0B2F5005F40D0002A47D132
:1043E00014F4403403D0B4F5403F44D101248DF897
:1043F00004408DF805208DF80610ADF8080096E809
:10440000070085E807003049C7F88C30A1F1640047
:1044100001F037FC75E74FF46503CAE72B4BC8E79B
:104420002B4BC6E74FF49E23C3E74FF41D23C0E791
:104430004FF40003BDE7274BBBE74FF08063B8E7BD
:104440004FF0EB73B5E74FF46B03B2E74FF07063D7
:10445000AFE74FF08053ACE700200E22C0E74FF4E7
:104460008070FAE76FF008004CE76FF00A0049E748
:104470006FF0090046E76FF00B0043E71148162A7A
:104480004FF0FF3315BF014600F1640141F8643F6E
:10449000836601F0F6FB10F1100F04D0C01731E76E
:1044A0006FF003002EE76FF001002BE734A9002026
:1044B0000050270000C0750090D0030000903A0122
:1044C00040420F00A4A8002008A9002000F03A00F4
:1044D00000B0130000A04E0073B506461B480C4602
:1044E00001F00BFC194D18B94FF0FF3002B070BD50
:1044F00022463146284601F0DEFC10F1100F02D1B1
:104500006FF00100F2E70028EEDB0321284600F0FF
:1045100061FB10F1100FF3D00028E5DB00230193BD
:10452000284601A901F073FD10F1100FF8D0783082
:10453000DAD0019B9C42D7D801220448114601F0F1
:1045400064FD0028D0DB00202C66CFE7A4A8002063
:10455000F0B51B4E054691B030460C4601F0CDFB40
:1045600018B94FF0FF3011B0F0BD05F06043B3F162
:10457000005F20D1002322462946304601F0C3FBCC
:1045800010F1100F19D00028EBDBF46511E0A71B28
:10459000402F28BF4027A9193A4668460AF05AFC1E
:1045A00039466846FFF7D4FF0028DCD14036B442D4
:1045B000EDD80020D7E70026F9E76FF00100D2E739
:1045C000A4A8002010B50E4C204600F0A5FA2068E3
:1045D000002101F056FD01222168C1F343439B00F5
:1045E00003F1604303F56143D3F88002C1F3043162
:1045F0008A400243C3F880220020D3F8803210BDE5
:10460000A4A8002010B5164C0021206801F01CFD64
:1046100001202268C2F343439B0003F1604303F58A
:104620006143D3F88012C2F3043200FA02F221EAA5
:10463000020204F16400C3F88022D4E91512D3F811
:10464000803201F0C1F901460022204600F0DEF977
:104650000028AABF00206FF00100C4E9170010BDB8
:10466000A4A800207FB500250C46C0F810511646BE
:10467000D0F81021D0F8002222F02002C0F8002249
:10468000104AC0F8082301F0F0F9A560256104F193
:104690004C03D3E8EF1F21F47F0121F47041C3E8FC
:1046A000E21F002AF5D11022294668460AF0F7FBDE
:1046B000042368468DF800300196D4E9001398472A
:1046C00004B070BD20021800044B054A1B68B3FB00
:1046D000F2F35843034B43F001031847A0A800200E
:1046E00040420F00208000005F2800F01F034FEAC7
:1046F00050110BD8084A52F8212002EB8303D3F85B
:104700008010064A0A40C3F88020704700222033F8
:1047100052F82330FFDE00BF0C800000F0F0FCFFF9
:104720005F284FEA501208D8054B00F01F0053F8DD
:104730002220012383405360704700235B60FFDE2B
:104740000C8000005F2800F01F034FEA50110DD8C5
:10475000094A52F8212002EB8302D2F88010074B5D
:104760000B4043F00303C2F880307047002220332F
:1047700052F82330FFDE00BF0C800000F0F0FCFF99
:1047800091F839302DE9F74F05460C460E682BBBE2
:10479000076D47F000730365701C05D03046FFF7C6
:1047A000BFFF3046FFF7CEFF6068411C01D0FFF726
:1047B0009BFF94F82C30012B10D1E06847F0206764
:1047C000421C2F6501D0FFF78FFFA1684B1C05D05D
:1047D0000846FFF7A5FF0846FFF7B4FF94F838E056
:1047E000BEF1000F03D12B6D43F080732B65D4E92C
:1047F0000183278EB4F832A00093E36894F82D90DB
:1048000094F82E10A08E94F82CC0E28EDFF8A0B0A1
:10481000019347EA0A072B683843A56A41EA090170
:104820005B4542EA00024CEA010108BFED080A4379
:10483000C3F82455C3F86C25BEF1000F0DD1BCF1AF
:10484000010F08BF009AC3F80466C3F80C8602BFC4
:10485000C3F81026019AC3F80826002194F83B20DB
:10486000C3F84C11D3F84C01C3F86811D3F86801B0
:10487000C3F81411D3F81401C3F82411D3F8240198
:10488000C3F830110B48D3F830115201C3F30F3184
:10489000C3F30833D2B2C41884F80023012201F014
:1048A0001F015B098A4040F8232003B0BDE8F08F68
:1048B00000A0045000E100E05F2800F01F034FEA71
:1048C00050110DD8094A52F8212002EB8302D2F888
:1048D0008010074B0B4043F00203C2F88030704752
:1048E0000022203352F82330FFDE00BF0C8000008E
:1048F000F0F0FCFFF8B505462B6D046803F4822345
:10490000B3F5805FD4F8000205D009B100232B6213
:104910006FF07600F8BDD4F80463C4F8086309B9F1
:10492000830647D4D4F8003223F02003C4F80032C1
:104930004FF4A11305F15007D7E8EF1F1943C7E85B
:10494000E01F0028F8D112B9AB68002B59D12E4BCB
:10495000C4F808330123E362D4F82431002BFBD0E0
:104960000023C4F85031D4F85021C4F84C31D4F8A5
:104970004C21C4F82431D4F824212A6D12F40042C9
:104980001BD12A62204601F070F80023EB606B61B6
:10499000D7E8EF3F23F47F0323F47043C7E8E23FF7
:1049A000002AF5D126F4C01626F408760020C4F8B3
:1049B0000463AFE74FF48033BCE7C4F85031D4F858
:1049C0005021EA69C4F804270522C4F80827C4F86E
:1049D0004C31D4F84C310123E361D4F84C31002B35
:1049E000FBD00022C4F84C21D4F84C31D4F850311B
:1049F0000BB1D4F80C372B62C4F85021D4F85031E5
:104A0000C0E70123E362D1E7200218002DE9F3415A
:104A100004460F4694F84C1090460430002966D1A5
:104A200050220AF03CFA3B6963607B69E363BB692F
:104A300003B1013B23643B6A2568042B81BFFB69FA
:104A4000E36100232362D5F8003243F48023C5F8E4
:104A50000032012384F84C30D5F85021C4F8088086
:104A6000EAB939462046FFF78BFE08220023256865
:104A70008DF80730C5F800250DF10702C5F83C2771
:104A8000C5F8403701230A262B656B65D5F8303110
:104A900083BB0120FFF718FE013EF7D120E008227A
:104AA0006426C5F80025EB62D5F82431EBB9D5F8BA
:104AB0001431D3B90A20FFF707FE013EF4D10023D9
:104AC000C5F85031D5F85021C5F84C31D5F84C21F6
:104AD000C5F82431D5F82421C5F80035002EC0D101
:104AE0006FF08B0002B0BDE8F0810126E7E76FF0C0
:104AF0007700F7E70020C5F868018045D5F86831F0
:104B0000044B08BF03462268C5F80005C2F8043309
:104B1000E8E700BF200218002DE9F04101250368F5
:104B20002A4A2B4EC3F80823C3F30431C3F343428C
:104B300005FA01F12032044646F82210BFF34F8FE8
:104B4000BFF36F8FD3F80022294622F48022C3F8E6
:104B500000222A46FFF7CEFE2946204601F066F9DC
:104B6000256D2368E901D3F80406D3F80C86D3F841
:104B70001066D3F8087609D54FF0FF32C3F8042643
:104B8000C3F80C26C3F81026C3F80826AA0115D5C9
:104B9000431C01D0FFF790FEB8F1FF3F02D0404622
:104BA000FFF78AFE290109D57A1C02D03846FFF7A3
:104BB00083FE731C02D03046FFF77EFE002384F88C
:104BC0004C302365A360BDE8F08100BF20121804BB
:104BD00000E100E0F8B50646044656F8505B071DB4
:104BE000D6E8EF3F43F48052C6E8E02F0028F7D123
:104BF000DA0468D44B0702D5E369002B66D0354B45
:104C0000C5F808330823C5F800350023C5F84C3132
:104C1000D5F84C21C5F85031D5F85021C5F82431CC
:104C20000A03D5F824318B0303F4804302F40052C5
:104C30004903134301F400410B43D6E8EF2F1A4315
:104C4000C6E8E12F0029F8D1E368C3B9A3687BB9AE
:104C5000236DD80435D5D6E8EF3F23F47F0323F442
:104C60007043C6E8E23F002AF5D16FF00B00F8BDB3
:104C70000321384600F0D4FEE368002BE8D0D5F8D5
:104C80000433D90610D5A36873B1236D1A030BD56D
:104C9000D6E8EF3F23F40023C6E8E23F002AF7D12D
:104CA0000621384600F0BCFE236DDB0409D5D5F89B
:104CB00050310BB90123AB62A36813B1054BC5F8A2
:104CC00004330020D3E76FF00F00D0E74FF0FF3040
:104CD000CDE700BF2002180072B6024A1368013304
:104CE0001360704738B00020034A1368013B13601B
:104CF00003B962B6704700BF38B000200123084AEC
:104D0000C2F8043302F58022C2F8043302F580228F
:104D1000C2F8043302F58022C2F80433704700BFA2
:104D2000000004500D4BD3F8000103F58023D3F8A5
:104D3000003183B9003818BF01208000084BD3F838
:104D40000031002B074B18BF0420D3F80031002B93
:104D500018BF042070470420F0E700BF0000045093
:104D600000000C50000010500122024BC3F8042335
:104D7000704700BF00100450034BD3F80001003807
:104D800018BF0120C0007047001004500022034BE0
:104D9000C3F80021D3F80031704700BF0010045061
:104DA00000230A4AC2F80031D2F80021084AC2F8AA
:104DB0000031D2F80021074AC2F80031D2F80021B0
:104DC000054AC2F80031D2F80031704700000450A3
:104DD0000000085000000C50000010500022104647
:104DE00030B50749074C51F8043BD3F800511DB1C9
:104DF000D3F80404234018430132042AF3D130BD10
:104E0000288000000000FFFF004870476480000019
:104E10001FB50B4A01AB10685168128903C31A8091
:104E20000123002101A88DF8043000F0BBF818B16F
:104E300010F1780F08BF002005B05DF804FB00BF3B
:104E40007C800000F8B58507144618D10D4DA842A6
:104E500015D82D1AB5EB820F11D30B4ED6F800756D
:104E6000D6F8005507F00107C6F8007500F072F893
:104E7000204605F47C553D43C6F80055F8BD6FF05B
:104E80000400FBE70050160000B0045038B503469C
:104E9000094D0846AB4214460AD8ED1AB5EB840F0B
:104EA0004FEA820204D3194609F0D4FF204638BDE8
:104EB0006FF00400FBE700BF0050160070B50478E7
:104EC000437841880679C288057A44EA0324184B5E
:104ED00041EAC67142EA0542C3F80045C3F80C1521
:104EE000C3F81025D3F80424D207FBD5114A126861
:104EF000E2B10021427AC3F80C11D3F80C01C3F8D7
:104F00000411D3F80401C3F80811D3F80801C3F859
:104F10000011D3F8001152010749D2B281F84B2396
:104F20004FF400628A600F22C3F80423002070BD92
:104F300000B0045074BC002000E100E0044B40EAE3
:104F40000120C3F80005D3F80024D207FBD5704731
:104F500000B004502DE9F04104460D461646DFF836
:104F600040800120D8F80075D8F8001507F0010737
:104F7000C1F30521FFF7E2FF04EB86062B1FA642D3
:104F800004D13846BDE8F041FFF7D8BF53F8042FED
:104F9000D8F80404C007FBD544F8042BEFE700BFA2
:104FA00000B0045010B5064C237933B92160FFF7E7
:104FB00085FF08B90123237110BD6FF07700FBE76F
:104FC00074BC0020244B10B5D3F80C212AB1002268
:104FD000C3F80C21D3F80C210822D3F804412CB1DA
:104FE00000210224C3F80411D3F804311A4B1443EE
:104FF000D3F808212AB10022C3F80821D3F80821E8
:1050000004221443D3F800212AB10022C3F800215E
:105010000122D3F800311443200704D50F4B4FF47D
:1050200086701B689847A10704D50C4B4FF482701B
:105030001B689847620704D5084B4FF484701B68BF
:105040009847E30706D5BDE81040044B4FF4807045
:105050001B68184710BD00BF00B0045074BC00208E
:10506000003A18BF0122003918BF012103688900E6
:10507000074841EA4201186359605A6842F0010248
:105080005A60BFF34F8FBFF36F8F0020704700BF90
:1050900004AAFF0010B5FFF745FE0D4C4207206043
:1050A00002D5FFF79BFE6060FFF766FE236818439A
:1050B0000307206006D5074BD3F800246260D3F8BD
:1050C0000434A3601621BDE81040034800F066BC1C
:1050D0007CBC002000100450868000000C22014996
:1050E00009F0B8BE7CBC002038B5044600B30B29DB
:1050F0001ED9114D2868431C02D143F6DA3038BD61
:1051000078B108220D49204609F0A4FE04220A497C
:1051100004F1080009F09EFE2B68002001332B608B
:10512000EDE70822054906F0CBF90028E9D0E4E7CD
:105130004CF2DA20E3E700BF88BC0020BABC0020B4
:105140002DE9F04FADF50D7D044689461746002147
:105150001C2206A81D46969E9DF8648209F09FFEBB
:105160004FF4EE72002115A809F099FE1023059363
:10517000002C72D0236813B96268002A6DD1A2682E
:1051800012B9E268002A68D1226912B96269002A5C
:1051900063D1979A002A60D0989A0F2A5DD9B8F106
:1051A000000F01D0BE4258D34FF0200B0DF1340A4E
:1051B000CDF808B0CDF804A0626802200092002269
:1051C000114609F053FC00284AD14FF44072264B97
:1051D00006A9CDE90823254A009306925B4652466C
:1051E00015A8B8F1000F2CD00BF062FD28BBD4E954
:1051F000041215A806F08AFCF8B9D4E9021215A821
:105200000BF070FDC8B904AC2B463A464946CDE9CF
:10521000006415A80BF072FD78B92268A918B21ABB
:10522000B8F1000F10D005AB0293989B15A801931D
:10523000979B009323460BF094FD0DF50D7DBDE883
:10524000F08F0BF040FDD1E7989B15A80193979B39
:10525000009323460BF0B8FDEFE74CF2DA20ECE7C1
:1052600043F6DA30E9E700BF00051005042000012D
:1052700010B502F015FD0446E0B909F053FC50B931
:1052800032210F4800F08AFB09F096FCA0B90A21F0
:105290000C4800F083FB0C4A2E21D3680B4823F006
:1052A00008031B041B0C43F0BF6343F40033D360BB
:1052B00000F074FB204610BD45F22354FAE700BF0E
:1052C0009C800000CE80000000ED00E0D88000004F
:1052D000024B1860024B00201960704790BC002000
:1052E0008CBC00201FB5274C426923685A62826932
:1052F0009A62C269DA62026A1A63426A5A63826A0D
:105300009A63C26ADA63026B1A64426B5A60826BF8
:105310009A60C26BDA60026C1A61426C5A61826CEC
:105320009A61C26CDA61026D1A62826D5A65C26D51
:105330009A65026FDA65026E1A66826E5A66426F6D
:105340009A66EFF388825A64EFF389829A6442681E
:10535000DA64EFF394821A65026801A81A67FFF70E
:10536000BDFE2368019ADA6601221A70064B1C689A
:105370006408640020462146224623460DF023FBA4
:1053800004B010BD90BC00208CBC002000B5A1B0C2
:1053900001A8FEF7B3FE029B63B15B060AD4019B32
:1053A00023F00203052B05D1044B1B6813B101A8A0
:1053B000FFF798FF21B05DF804FB00BF8CBC002014
:1053C000BFF34F8F0549064BCA6802F4E0621343EE
:1053D000CB60BFF34F8F00BFFDE700BF00ED00E0E3
:1053E0000400FA054FF47A61214B224A22481A60E0
:1053F000D0F82436C3F30802C3F309434B4382F4C5
:1054000080721E49883201FB02334FF4FA215B009F
:10541000B3FBF1F201FB12331949B3F57A3F28BF10
:105420000132C1F80429D0F820364FF47A60C3F372
:105430000802C3F30943434342F21C5082F48072D2
:1054400002F2172200FB02334FF47A701B0AB3FBFF
:10545000F0F200FB1233B3F5FA7F4FF0010328BFDF
:105460000132C1F81C270020C1F80036704700BF88
:10547000A0A800200020A10700C0FF00F82A00809B
:1054800000001250F8B5C0F30B0686B920F47F6512
:105490000A4F25F00F054418AC4201D83046F8BD3C
:1054A0002846FB69984728B905F58055F4E74AF284
:1054B000C536F3E743F65C26F0E700BF388000000E
:1054C0002DE9F74FDFF864A08346DAF804300F4681
:1054D000154698470024164BC0F3410013F820905E
:1054E000DFF8508004F18003AB4294BF80262E1B6E
:1054F000B6FBF9F24146DAF8143004EB0B000192E6
:10550000984700280EDB4146DAF81830019AE01976
:105510009847002806DB3444A542E3D8002003B0B6
:10552000BDE8F08F43F65C20F9E700BF388000004B
:1055300008810000C2BC00202DE9F3471B4D8146C5
:105540006B680F4614469847194BC0F3410013F897
:1055500020A0B9FBFAF60AFB16961EBB6CB1D5F873
:105560001480B4FBFAF509F584292A4639464846E1
:10557000C047002805DA43F65C26304602B0BDE895
:10558000F0870AFB05F5641BF7D0012201A909EB9E
:105590000500C0470028EEDB224601A9781909F072
:1055A00059FCEAE74AF2C536E7E700BF3880000059
:1055B000088100002DE9F04F861806F6FF7525F4E6
:1055C0007F6525F00F0585B0B5F5805F0446019134
:1055D00004D943F65C2005B0BDE8F08FDFF86C819C
:1055E000D8F8043098470422594BC0F3410053F8CF
:1055F0002070D8F8143057480093FBB2B2FBF3F296
:1056000003A9009B9847039A531C023208BF012349
:105610000393002D34D024F47F6B2BF00F0BA5EBFC
:105620000B010BF58420FFF72DFF0028D3D1B5F532
:10563000BE7FAA4628BF4FF4BE7ADA4529D8B5F511
:10564000BE7F5ED3FBB20427B7FBF3F7424D3A4669
:1056500029464048009B9847B6F5BE7F5CD8042297
:1056600003A93D4809F0F6FB384B3A463A493B4816
:105670009B69984708B18742ABD100F08FFEAAE73B
:105680004FF480514FF48420FFF7FCFE0028C2D075
:10569000A1E70BF180039A452CBF4FF08009AAEBDC
:1056A0000B095FFA87F8B9FBF8F82B494246009BD3
:1056B0000BF5862098475E4516D909EB0B039C42F3
:1056C00012D2A3455A4638BF2246111BA2EB0B004B
:1056D0009E4294BFC2EB0602C2EB0302019B194437
:1056E0001D4B184409F0B6FB184B42469B691A49FA
:1056F0000BF58420984710B180457FF46AAFCB4406
:105700009BE74FF4BE724FF484214FF48620FFF7DD
:10571000D7FE002896D05EE7B4F5C07F9FD2B4F5DF
:10572000BE7F224638BF4FF4BE72019B111BA2F50B
:10573000BE700B44B6F5C07F94BFC2EB0602C2F543
:10574000C0721946284409F085FB88E738800000BC
:10575000088100007C310400C2BC00207C210400D0
:105760002DE9F041504F86B00020BB6898470028D3
:1057700070D104226946FFF7DFFE0446002840D1BD
:1057800004224FF4BE700DEB0201FFF7D5FE044674
:10579000002836D1454D009BAB4203D1019B013B14
:1057A000033366D97B689847414BC0F3410053F8F7
:1057B000206004224FF4805004A9FFF7BDFE044688
:1057C000F8B9042241F27C1005A9FFF7B5FE0446A2
:1057D000B8B9049B4FF48051AB424FF4842014D1EC
:1057E000059B013B033310D8FFF74CFE044640B93C
:1057F0004FF480524FF484214FF48620FFF760FE6F
:105800000446204606B0BDE8F081FFF73BFE0446A3
:105810000028F6D101468022264809F040FBF3B269
:105820008026B6FBF3F6DFF88C8004F58420324640
:105830004146BB6980349847B4F5805FF5D300F0EA
:10584000ADFD04460028DCD1042202A90295FFF731
:10585000B1FE10B143F65C24D3E7012304224FF4D8
:10586000BE7003A90393FFF7A5FE04460028C8D025
:10587000F0E7042241F27C1005A9FFF75DFE044623
:105880000028BED1059B5A1E033206D8019A9342C6
:1058900003D30233B5D1012AB3D100F07FFD002834
:1058A00018BF0446ADE700BF388000001281DEC09B
:1058B00008810000C2BC00201E2811D801230A4A1A
:1058C0008340134208D113F0980F07D11D2807D148
:1058D000402300200B6070472023FAE70423F8E7F9
:1058E0004CF25A30704700BF650F0040436870B5F6
:1058F0000C2B01D0022070BD4B68042BFAD14FF065
:10590000FF3305680E68296833600029F2D0AA6861
:10591000002AEFD00623012001F0F4FF04460028FE
:10592000E8D16968064B9942E4D9AA68054B881802
:105930009842DFD8286809F08DFA20463460DAE70B
:10594000030508E0080508E0436810B50C2B14D1E6
:105950004B68042B11D10A68012103681160186893
:105960000C49884209D1022111609968032904D1A8
:105970005B6813F0020002D01160022009E00649C2
:10598000D1F81845634003F003036340C1F81835AC
:10599000106010BD18B5045000B00450FEF744BCB0
:1059A000012070476FF003007047002070476FF0D0
:1059B0000300704700207047022814BF6FF00300F7
:1059C00000207047FEF7C4BD70B540F2FF1501EB33
:1059D0008202914200D170BD51F8044BC4F3080318
:1059E000640CAB4208BF4FF0FF33032CF1D8DFE863
:1059F00004F0020406080360EBE74360E9E7836014
:105A0000E7E7C360E5E70346D0F8300130B931B9C4
:105A1000D3F86801003818BF012070470120704793
:105A200030B504460D4685B010220021684609F0C5
:105A300036FAD4E9001368468DF80050984705B04F
:105A400030BD7FB504460E4615460021102268463B
:105A500009F025FA012368468DF80030CDE901658B
:105A6000D4E90013984704B070BD10B50446FFF7A1
:105A700033F9D4F8303133B1D4F8043313F480530C
:105A800008BFC4F80035BDE81040FFF72DB9D0F8C5
:105A9000303133B1CB6CC3F30032DB0458BFC0F8F4
:105AA000002570472DE9F74F866804460D463EB144
:105AB00013F0020604D0C36B002B00F09580012682
:105AC000276D17F0100740F08F804FF00109AB18D9
:105AD0000193019BAB4200F0898005F060439B4637
:105AE000E26BD4F8008082B9BBF1005F40F08780A0
